{
  "address": "0x6D1BF6f4209f30aff930fb87D89EAC3770Fa3691",
  "abi": [
    {
      "anonymous": false,
      "inputs": [
        {
          "indexed": true,
          "internalType": "address",
          "name": "user",
          "type": "address"
        },
        {
          "indexed": true,
          "internalType": "uint256",
          "name": "pid",
          "type": "uint256"
        },
        {
          "indexed": false,
          "internalType": "uint256",
          "name": "amount",
          "type": "uint256"
        },
        {
          "indexed": true,
          "internalType": "address",
          "name": "to",
          "type": "address"
        }
      ],
      "name": "Deposit",
      "type": "event"
    },
    {
      "anonymous": false,
      "inputs": [
        {
          "indexed": true,
          "internalType": "address",
          "name": "user",
          "type": "address"
        },
        {
          "indexed": true,
          "internalType": "uint256",
          "name": "pid",
          "type": "uint256"
        },
        {
          "indexed": false,
          "internalType": "uint256",
          "name": "amount",
          "type": "uint256"
        },
        {
          "indexed": true,
          "internalType": "address",
          "name": "to",
          "type": "address"
        }
      ],
      "name": "EmergencyWithdraw",
      "type": "event"
    },
    {
      "anonymous": false,
      "inputs": [
        {
          "indexed": true,
          "internalType": "address",
          "name": "user",
          "type": "address"
        },
        {
          "indexed": true,
          "internalType": "uint256",
          "name": "pid",
          "type": "uint256"
        },
        {
          "indexed": false,
          "internalType": "uint256",
          "name": "amount",
          "type": "uint256"
        }
      ],
      "name": "Harvest",
      "type": "event"
    },
    {
      "anonymous": false,
      "inputs": [
        {
          "indexed": true,
          "internalType": "uint256",
          "name": "pid",
          "type": "uint256"
        },
        {
          "indexed": false,
          "internalType": "uint256",
          "name": "allocPoint",
          "type": "uint256"
        },
        {
          "indexed": true,
          "internalType": "contract IERC20",
          "name": "lpToken",
          "type": "address"
        },
        {
          "indexed": true,
          "internalType": "contract IRewarder",
          "name": "rewarder",
          "type": "address"
        }
      ],
      "name": "LogPoolAddition",
      "type": "event"
    },
    {
      "anonymous": false,
      "inputs": [
        {
          "indexed": false,
          "internalType": "uint256",
          "name": "rewardPerSecond",
          "type": "uint256"
        }
      ],
      "name": "LogRewardPerSecond",
      "type": "event"
    },
    {
      "anonymous": false,
      "inputs": [
        {
          "indexed": true,
          "internalType": "uint256",
          "name": "pid",
          "type": "uint256"
        },
        {
          "indexed": false,
          "internalType": "uint256",
          "name": "allocPoint",
          "type": "uint256"
        },
        {
          "indexed": true,
          "internalType": "contract IRewarder",
          "name": "rewarder",
          "type": "address"
        },
        {
          "indexed": false,
          "internalType": "bool",
          "name": "overwrite",
          "type": "bool"
        }
      ],
      "name": "LogSetPool",
      "type": "event"
    },
    {
      "anonymous": false,
      "inputs": [
        {
          "indexed": true,
          "internalType": "uint256",
          "name": "pid",
          "type": "uint256"
        },
        {
          "indexed": false,
          "internalType": "uint256",
          "name": "lastRewardTime",
          "type": "uint256"
        },
        {
          "indexed": false,
          "internalType": "uint256",
          "name": "lpSupply",
          "type": "uint256"
        },
        {
          "indexed": false,
          "internalType": "uint256",
          "name": "accRewardPerShare",
          "type": "uint256"
        }
      ],
      "name": "LogUpdatePool",
      "type": "event"
    },
    {
      "anonymous": false,
      "inputs": [
        {
          "indexed": true,
          "internalType": "address",
          "name": "previousOwner",
          "type": "address"
        },
        {
          "indexed": true,
          "internalType": "address",
          "name": "newOwner",
          "type": "address"
        }
      ],
      "name": "OwnershipTransferred",
      "type": "event"
    },
    {
      "anonymous": false,
      "inputs": [
        {
          "indexed": true,
          "internalType": "address",
          "name": "user",
          "type": "address"
        },
        {
          "indexed": true,
          "internalType": "uint256",
          "name": "pid",
          "type": "uint256"
        },
        {
          "indexed": false,
          "internalType": "uint256",
          "name": "amount",
          "type": "uint256"
        },
        {
          "indexed": true,
          "internalType": "address",
          "name": "to",
          "type": "address"
        }
      ],
      "name": "Withdraw",
      "type": "event"
    },
    {
      "inputs": [
        {
          "internalType": "uint256",
          "name": "allocPoint",
          "type": "uint256"
        },
        {
          "internalType": "contract IERC20",
          "name": "_lpToken",
          "type": "address"
        },
        {
          "internalType": "contract IRewarder",
          "name": "_rewarder",
          "type": "address"
        }
      ],
      "name": "add",
      "outputs": [],
      "stateMutability": "nonpayable",
      "type": "function"
    },
    {
      "inputs": [
        {
          "internalType": "uint256",
          "name": "pid",
          "type": "uint256"
        },
        {
          "internalType": "uint256",
          "name": "amount",
          "type": "uint256"
        },
        {
          "internalType": "address",
          "name": "to",
          "type": "address"
        }
      ],
      "name": "deposit",
      "outputs": [],
      "stateMutability": "nonpayable",
      "type": "function"
    },
    {
      "inputs": [
        {
          "internalType": "uint256",
          "name": "pid",
          "type": "uint256"
        },
        {
          "internalType": "address",
          "name": "to",
          "type": "address"
        }
      ],
      "name": "emergencyWithdraw",
      "outputs": [],
      "stateMutability": "nonpayable",
      "type": "function"
    },
    {
      "inputs": [
        {
          "internalType": "uint256",
          "name": "pid",
          "type": "uint256"
        },
        {
          "internalType": "address",
          "name": "to",
          "type": "address"
        }
      ],
      "name": "harvest",
      "outputs": [],
      "stateMutability": "nonpayable",
      "type": "function"
    },
    {
      "inputs": [
        {
          "internalType": "address",
          "name": "to",
          "type": "address"
        }
      ],
      "name": "harvestAllRewards",
      "outputs": [],
      "stateMutability": "nonpayable",
      "type": "function"
    },
    {
      "inputs": [
        {
          "internalType": "uint256",
          "name": "",
          "type": "uint256"
        }
      ],
      "name": "lpToken",
      "outputs": [
        {
          "internalType": "contract IERC20",
          "name": "",
          "type": "address"
        }
      ],
      "stateMutability": "view",
      "type": "function"
    },
    {
      "inputs": [],
      "name": "massUpdatePools",
      "outputs": [],
      "stateMutability": "nonpayable",
      "type": "function"
    },
    {
      "inputs": [],
      "name": "owner",
      "outputs": [
        {
          "internalType": "address",
          "name": "",
          "type": "address"
        }
      ],
      "stateMutability": "view",
      "type": "function"
    },
    {
      "inputs": [
        {
          "internalType": "uint256",
          "name": "_pid",
          "type": "uint256"
        },
        {
          "internalType": "address",
          "name": "_user",
          "type": "address"
        }
      ],
      "name": "pendingReward",
      "outputs": [
        {
          "internalType": "uint256",
          "name": "pending",
          "type": "uint256"
        }
      ],
      "stateMutability": "view",
      "type": "function"
    },
    {
      "inputs": [
        {
          "internalType": "uint256",
          "name": "",
          "type": "uint256"
        }
      ],
      "name": "poolInfo",
      "outputs": [
        {
          "internalType": "uint256",
          "name": "accRewardPerShare",
          "type": "uint256"
        },
        {
          "internalType": "uint256",
          "name": "lastRewardTime",
          "type": "uint256"
        },
        {
          "internalType": "uint256",
          "name": "allocPoint",
          "type": "uint256"
        }
      ],
      "stateMutability": "view",
      "type": "function"
    },
    {
      "inputs": [],
      "name": "poolLength",
      "outputs": [
        {
          "internalType": "uint256",
          "name": "pools",
          "type": "uint256"
        }
      ],
      "stateMutability": "view",
      "type": "function"
    },
    {
      "inputs": [],
      "name": "renounceOwnership",
      "outputs": [],
      "stateMutability": "nonpayable",
      "type": "function"
    },
    {
      "inputs": [],
      "name": "rewardMinter",
      "outputs": [
        {
          "internalType": "contract IFantasticStaking",
          "name": "",
          "type": "address"
        }
      ],
      "stateMutability": "view",
      "type": "function"
    },
    {
      "inputs": [],
      "name": "rewardPerSecond",
      "outputs": [
        {
          "internalType": "uint256",
          "name": "",
          "type": "uint256"
        }
      ],
      "stateMutability": "view",
      "type": "function"
    },
    {
      "inputs": [
        {
          "internalType": "uint256",
          "name": "",
          "type": "uint256"
        }
      ],
      "name": "rewarder",
      "outputs": [
        {
          "internalType": "contract IRewarder",
          "name": "",
          "type": "address"
        }
      ],
      "stateMutability": "view",
      "type": "function"
    },
    {
      "inputs": [
        {
          "internalType": "uint256",
          "name": "_pid",
          "type": "uint256"
        },
        {
          "internalType": "uint256",
          "name": "_allocPoint",
          "type": "uint256"
        },
        {
          "internalType": "contract IRewarder",
          "name": "_rewarder",
          "type": "address"
        },
        {
          "internalType": "bool",
          "name": "overwrite",
          "type": "bool"
        }
      ],
      "name": "set",
      "outputs": [],
      "stateMutability": "nonpayable",
      "type": "function"
    },
    {
      "inputs": [
        {
          "internalType": "contract IFantasticStaking",
          "name": "_rewardMinter",
          "type": "address"
        }
      ],
      "name": "setRewardMinter",
      "outputs": [],
      "stateMutability": "nonpayable",
      "type": "function"
    },
    {
      "inputs": [
        {
          "internalType": "uint256",
          "name": "_rewardPerSecond",
          "type": "uint256"
        }
      ],
      "name": "setRewardPerSecond",
      "outputs": [],
      "stateMutability": "nonpayable",
      "type": "function"
    },
    {
      "inputs": [],
      "name": "totalAllocPoint",
      "outputs": [
        {
          "internalType": "uint256",
          "name": "",
          "type": "uint256"
        }
      ],
      "stateMutability": "view",
      "type": "function"
    },
    {
      "inputs": [
        {
          "internalType": "address",
          "name": "newOwner",
          "type": "address"
        }
      ],
      "name": "transferOwnership",
      "outputs": [],
      "stateMutability": "nonpayable",
      "type": "function"
    },
    {
      "inputs": [
        {
          "internalType": "uint256",
          "name": "pid",
          "type": "uint256"
        }
      ],
      "name": "updatePool",
      "outputs": [
        {
          "components": [
            {
              "internalType": "uint256",
              "name": "accRewardPerShare",
              "type": "uint256"
            },
            {
              "internalType": "uint256",
              "name": "lastRewardTime",
              "type": "uint256"
            },
            {
              "internalType": "uint256",
              "name": "allocPoint",
              "type": "uint256"
            }
          ],
          "internalType": "struct FantasticChef.PoolInfo",
          "name": "pool",
          "type": "tuple"
        }
      ],
      "stateMutability": "nonpayable",
      "type": "function"
    },
    {
      "inputs": [
        {
          "internalType": "uint256",
          "name": "",
          "type": "uint256"
        },
        {
          "internalType": "address",
          "name": "",
          "type": "address"
        }
      ],
      "name": "userInfo",
      "outputs": [
        {
          "internalType": "uint256",
          "name": "amount",
          "type": "uint256"
        },
        {
          "internalType": "int256",
          "name": "rewardDebt",
          "type": "int256"
        }
      ],
      "stateMutability": "view",
      "type": "function"
    },
    {
      "inputs": [
        {
          "internalType": "uint256",
          "name": "pid",
          "type": "uint256"
        },
        {
          "internalType": "uint256",
          "name": "amount",
          "type": "uint256"
        },
        {
          "internalType": "address",
          "name": "to",
          "type": "address"
        }
      ],
      "name": "withdraw",
      "outputs": [],
      "stateMutability": "nonpayable",
      "type": "function"
    },
    {
      "inputs": [
        {
          "internalType": "uint256",
          "name": "pid",
          "type": "uint256"
        },
        {
          "internalType": "uint256",
          "name": "amount",
          "type": "uint256"
        },
        {
          "internalType": "address",
          "name": "to",
          "type": "address"
        }
      ],
      "name": "withdrawAndHarvest",
      "outputs": [],
      "stateMutability": "nonpayable",
      "type": "function"
    }
  ],
  "transactionHash": "0xc2da5b99b98716d1cd17c259227baa5af908a2e1bf00eb7f48b2ef96c5359923",
  "args": [],
  "numDeployments": 1,
  "solcInputHash": "e3b934c02ffbee22c3654f8fe1ecc068",
  "bytecode": "0x6080604052600060065534801561001557600080fd5b5061001f33610024565b610074565b600080546001600160a01b038381166001600160a01b0319831681178455604051919092169283917f8be0079c531659141344cd1fd0a4f28419497f9722a3daafe3b4186f6b6457e09190a35050565b611f0d806100836000396000f3fe608060405234801561001057600080fd5b50600436106101585760003560e01c80638da5cb5b116100c3578063a7a0b84a1161007c578063a7a0b84a14610316578063ab7de09814610329578063c346253d1461033c578063d1abb9071461034f578063f2fde38b14610362578063fbe6cf6a1461037557600080fd5b80638da5cb5b1461027c5780638dbdbe6d1461028d5780638f10369a146102a057806393f1a40b146102a957806398969e82146102f05780639b8e55631461030357600080fd5b806351eb05a61161011557806351eb05a6146101e6578063630b5ba11461021b57806366da581514610223578063715018a61461023657806378ed5d1f1461023e57806388bba42f1461026957600080fd5b8063081e3eda1461015d5780630ad58d2f146101745780631526fe271461018957806317caf6f1146101b757806318fccc76146101c05780632f940c70146101d3575b600080fd5b6002545b6040519081526020015b60405180910390f35b610187610182366004611c40565b610388565b005b61019c610197366004611ba0565b610541565b6040805193845260208401929092529082015260600161016b565b61016160065481565b6101876101ce366004611bd0565b610574565b6101876101e1366004611bd0565b61072d565b6101f96101f4366004611ba0565b610878565b604080518251815260208084015190820152918101519082015260600161016b565b610187610abc565b610187610231366004611ba0565b610ae8565b610187610bdc565b61025161024c366004611ba0565b610c12565b6040516001600160a01b03909116815260200161016b565b610187610277366004611c6d565b610c3c565b6000546001600160a01b0316610251565b61018761029b366004611c40565b610de3565b61016160075481565b6102db6102b7366004611bd0565b60056020908152600092835260408084209091529082529020805460019091015482565b6040805192835260208301919091520161016b565b6101616102fe366004611bd0565b610f94565b600154610251906001600160a01b031681565b610187610324366004611b68565b611170565b610187610337366004611bff565b611211565b61025161034a366004611ba0565b61144b565b61018761035d366004611c40565b61145b565b610187610370366004611b68565b6116c8565b610187610383366004611b68565b611763565b600061039384610878565b6000858152600560209081526040808320338452909152902081519192509064e8d4a51000906103c39086611de2565b6103cd9190611dc2565b8160010160008282546103e09190611e01565b90915550508054849082906000906103f9908490611e40565b9250508190555060006004868154811061042357634e487b7160e01b600052603260045260246000fd5b6000918252602090912001546001600160a01b0316905080156104a95781546040516344af0fa760e01b81526001600160a01b038316916344af0fa791610476918a9133918a9160009190600401611d3a565b600060405180830381600087803b15801561049057600080fd5b505af11580156104a4573d6000803e3d6000fd5b505050505b6104eb8486600389815481106104cf57634e487b7160e01b600052603260045260246000fd5b6000918252602090912001546001600160a01b03169190611790565b836001600160a01b031686336001600160a01b03167f8166bf25f8a2b7ed3c85049207da4358d16edbed977d23fa2ee6f0dde3ec21328860405161053191815260200190565b60405180910390a4505050505050565b6002818154811061055157600080fd5b600091825260209091206003909102018054600182015460029092015490925083565b600061057f83610878565b6000848152600560209081526040808320338452909152812082518154939450909264e8d4a51000916105b191611de2565b6105bb9190611dc2565b905060008260010154826105cf9190611e01565b6001840183905590508015610645576001546040516340c10f1960e01b81526001600160a01b03878116600483015260248201849052909116906340c10f1990604401600060405180830381600087803b15801561062c57600080fd5b505af1158015610640573d6000803e3d6000fd5b505050505b60006004878154811061066857634e487b7160e01b600052603260045260246000fd5b6000918252602090912001546001600160a01b0316905080156106ed5783546040516344af0fa760e01b81526001600160a01b038316916344af0fa7916106ba918b9133918c91899190600401611d3a565b600060405180830381600087803b1580156106d457600080fd5b505af11580156106e8573d6000803e3d6000fd5b505050505b604051828152879033907f71bab65ced2e5750775a0613be067df48ef06cf92a496ebf7663ae06609249549060200160405180910390a350505050505050565b6000828152600560209081526040808320338452909152812080548282556001820183905560048054929391928690811061077857634e487b7160e01b600052603260045260246000fd5b6000918252602090912001546001600160a01b0316905080156107fd576040516344af0fa760e01b81526001600160a01b038216906344af0fa7906107ca908890339089906000908190600401611d3a565b600060405180830381600087803b1580156107e457600080fd5b505af11580156107f8573d6000803e3d6000fd5b505050505b6108238483600388815481106104cf57634e487b7160e01b600052603260045260246000fd5b836001600160a01b031685336001600160a01b03167f2cac5e20e1541d836381527a43f651851e302817b71dc8e810284e69210c1c6b8560405161086991815260200190565b60405180910390a45050505050565b61089c60405180606001604052806000815260200160008152602001600081525090565b600282815481106108bd57634e487b7160e01b600052603260045260246000fd5b600091825260209182902060408051606081018252600390930290910180548352600181015493830184905260020154908201529150421115610ab75760006003838154811061091d57634e487b7160e01b600052603260045260246000fd5b6000918252602090912001546040516370a0823160e01b81523060048201526001600160a01b03909116906370a082319060240160206040518083038186803b15801561096957600080fd5b505afa15801561097d573d6000803e3d6000fd5b505050506040513d601f19601f820116820180604052508101906109a19190611bb8565b90508015610a1a5760008260200151426109bb9190611e40565b905060006006548460400151600754846109d59190611de2565b6109df9190611de2565b6109e99190611dc2565b9050826109fb64e8d4a5100083611de2565b610a059190611dc2565b84518590610a14908390611daa565b90525050505b4260208301526002805483919085908110610a4557634e487b7160e01b600052603260045260246000fd5b600091825260209182902083516003929092020190815582820151600182015560409283015160029091015583810151845183519182529181018490529182015283907fcb7325664a4a3b7c7223eefc492a97ca4fdf94d46884621e5a8fae5a04b2b9d29060600160405180910390a2505b919050565b60025460005b81811015610ae457610ad381610878565b50610add81611e83565b9050610ac2565b5050565b6000546001600160a01b03163314610b1b5760405162461bcd60e51b8152600401610b1290611d05565b60405180910390fd5b670de0b6b3a7640000811115610b995760405162461bcd60e51b815260206004820152603a60248201527f46616e746173746963436865663a3a7365745265776172645065725365636f6e60448201527f643a203e204d41585f5245574152445f5045525f5345434f4e440000000000006064820152608401610b12565b610ba1610abc565b60078190556040518181527fde89cb17ac7f58f94792b3e91e086ed85403819c24ceea882491f960ccb1a2789060200160405180910390a150565b6000546001600160a01b03163314610c065760405162461bcd60e51b8152600401610b1290611d05565b610c1060006117f3565b565b60038181548110610c2257600080fd5b6000918252602090912001546001600160a01b0316905081565b6000546001600160a01b03163314610c665760405162461bcd60e51b8152600401610b1290611d05565b610c6e610abc565b8260028581548110610c9057634e487b7160e01b600052603260045260246000fd5b906000526020600020906003020160020154600654610caf9190611e40565b610cb99190611daa565b6006819055508260028581548110610ce157634e487b7160e01b600052603260045260246000fd5b9060005260206000209060030201600201819055508015610d4d578160048581548110610d1e57634e487b7160e01b600052603260045260246000fd5b9060005260206000200160006101000a8154816001600160a01b0302191690836001600160a01b031602179055505b80610d8d5760048481548110610d7357634e487b7160e01b600052603260045260246000fd5b6000918252602090912001546001600160a01b0316610d8f565b815b6001600160a01b0316847f95895a6ab1df54420d241b55243258a33e61b2194db66c1179ec521aae8e18658584604051610dd59291909182521515602082015260400190565b60405180910390a350505050565b6000610dee84610878565b60008581526005602090815260408083206001600160a01b0387168452909152812080549293509185918391610e25908490611daa565b9091555050815164e8d4a5100090610e3d9086611de2565b610e479190611dc2565b816001016000828254610e5a9190611d69565b92505081905550600060048681548110610e8457634e487b7160e01b600052603260045260246000fd5b6000918252602090912001546001600160a01b031690508015610f0a5781546040516344af0fa760e01b81526001600160a01b038316916344af0fa791610ed7918a918991829160009190600401611d3a565b600060405180830381600087803b158015610ef157600080fd5b505af1158015610f05573d6000803e3d6000fd5b505050505b610f4e33308760038a81548110610f3157634e487b7160e01b600052603260045260246000fd5b6000918252602090912001546001600160a01b0316929190611843565b836001600160a01b031686336001600160a01b03167f02d7e648dd130fc184d383e55bb126ac4c9c60e8f94bf05acdf557ba2d540b478860405161053191815260200190565b60008060028481548110610fb857634e487b7160e01b600052603260045260246000fd5b60009182526020808320604080516060810182526003948502909201805483526001810154838501526002015482820152888552600583528085206001600160a01b0389168652909252908320815183549295509093909290918890811061103057634e487b7160e01b600052603260045260246000fd5b6000918252602090912001546040516370a0823160e01b81523060048201526001600160a01b03909116906370a082319060240160206040518083038186803b15801561107c57600080fd5b505afa158015611090573d6000803e3d6000fd5b505050506040513d601f19601f820116820180604052508101906110b49190611bb8565b90508360200151421180156110c857508015155b156111385760008460200151426110df9190611e40565b905060006006548660400151600754846110f99190611de2565b6111039190611de2565b61110d9190611dc2565b90508261111f64e8d4a5100083611de2565b6111299190611dc2565b6111339085611daa565b935050505b6001830154835464e8d4a5100090611151908590611de2565b61115b9190611dc2565b6111659190611e01565b979650505050505050565b6001546001600160a01b0316156111ef5760405162461bcd60e51b815260206004820152603c60248201527f46616e746173746963436865663a3a7365745265776172644d696e7465723a2060448201527f43616e6e6f74207265646566696e65207265776172644d696e746572000000006064820152608401610b12565b600180546001600160a01b0319166001600160a01b0392909216919091179055565b6000546001600160a01b0316331461123b5760405162461bcd60e51b8152600401610b1290611d05565b61124482611881565b61124c610abc565b826006600082825461125e9190611daa565b909155505060038054600181810183557fc2575a0e9e593c00f959f8c92f12db2869c3395a3b0502d05e2516446f71f85b90910180546001600160a01b038087166001600160a01b031992831617909255600480548085019091557f8a35acfbc15ff81a39ae7d344fd709f28e8600b4aa8c65c6b64bfe7fe36bd19b018054928616929091169190911790556040805160608101825260008082524260208301908152928201888152600280549586018155918290529151939094027f405787fa12a823e0f2b7631cc41b3ba8828b3321ca811111fa75cd3aa3bb5ace81019390935590517f405787fa12a823e0f2b7631cc41b3ba8828b3321ca811111fa75cd3aa3bb5acf830155517f405787fa12a823e0f2b7631cc41b3ba8828b3321ca811111fa75cd3aa3bb5ad09091015554601810156113ed5760405162461bcd60e51b815260206004820152602660248201527f46616e746173746963436865663a3a6164643a203e204d41585f4e554d5f4f466044820152655f504f4f4c5360d01b6064820152608401610b12565b806001600160a01b0316826001600160a01b031660016003805490506114139190611e40565b6040518681527f81ee0f8c5c46e2cb41984886f77a84181724abb86c32a5f6de539b07509d45e59060200160405180910390a4505050565b60048181548110610c2257600080fd5b600061146684610878565b6000858152600560209081526040808320338452909152812082518154939450909264e8d4a510009161149891611de2565b6114a29190611dc2565b905060008260010154826114b69190611e01565b845190915064e8d4a51000906114cc9088611de2565b6114d69190611dc2565b6114e09083611e01565b60018401558254869084906000906114f9908490611e40565b9091555050801561156b576001546040516340c10f1960e01b81526001600160a01b03878116600483015260248201849052909116906340c10f1990604401600060405180830381600087803b15801561155257600080fd5b505af1158015611566573d6000803e3d6000fd5b505050505b60006004888154811061158e57634e487b7160e01b600052603260045260246000fd5b6000918252602090912001546001600160a01b0316905080156116135783546040516344af0fa760e01b81526001600160a01b038316916344af0fa7916115e0918c9133918c91899190600401611d3a565b600060405180830381600087803b1580156115fa57600080fd5b505af115801561160e573d6000803e3d6000fd5b505050505b611639868860038b815481106104cf57634e487b7160e01b600052603260045260246000fd5b856001600160a01b031688336001600160a01b03167f8166bf25f8a2b7ed3c85049207da4358d16edbed977d23fa2ee6f0dde3ec21328a60405161167f91815260200190565b60405180910390a4604051828152889033907f71bab65ced2e5750775a0613be067df48ef06cf92a496ebf7663ae06609249549060200160405180910390a35050505050505050565b6000546001600160a01b031633146116f25760405162461bcd60e51b8152600401610b1290611d05565b6001600160a01b0381166117575760405162461bcd60e51b815260206004820152602660248201527f4f776e61626c653a206e6577206f776e657220697320746865207a65726f206160448201526564647265737360d01b6064820152608401610b12565b611760816117f3565b50565b60025460005b8181101561178b5761177b8184610574565b61178481611e83565b9050611769565b505050565b6040516001600160a01b03831660248201526044810182905261178b90849063a9059cbb60e01b906064015b60408051601f198184030181529190526020810180516001600160e01b03166001600160e01b031990931692909217909152611923565b600080546001600160a01b038381166001600160a01b0319831681178455604051919092169283917f8be0079c531659141344cd1fd0a4f28419497f9722a3daafe3b4186f6b6457e09190a35050565b6040516001600160a01b038085166024830152831660448201526064810182905261187b9085906323b872dd60e01b906084016117bc565b50505050565b60025460005b8181101561178b57826001600160a01b0316600382815481106118ba57634e487b7160e01b600052603260045260246000fd5b6000918252602090912001546001600160a01b031614156119135760405162461bcd60e51b81526020600482015260136024820152726164643a206578697374696e6720706f6f6c3f60681b6044820152606401610b12565b61191c81611e83565b9050611887565b6000611978826040518060400160405280602081526020017f5361666545524332303a206c6f772d6c6576656c2063616c6c206661696c6564815250856001600160a01b03166119f59092919063ffffffff16565b80519091501561178b57808060200190518101906119969190611b84565b61178b5760405162461bcd60e51b815260206004820152602a60248201527f5361666545524332303a204552433230206f7065726174696f6e20646964206e6044820152691bdd081cdd58d8d9595960b21b6064820152608401610b12565b6060611a048484600085611a0e565b90505b9392505050565b606082471015611a6f5760405162461bcd60e51b815260206004820152602660248201527f416464726573733a20696e73756666696369656e742062616c616e636520666f6044820152651c8818d85b1b60d21b6064820152608401610b12565b6001600160a01b0385163b611ac65760405162461bcd60e51b815260206004820152601d60248201527f416464726573733a2063616c6c20746f206e6f6e2d636f6e74726163740000006044820152606401610b12565b600080866001600160a01b03168587604051611ae29190611cb6565b60006040518083038185875af1925050503d8060008114611b1f576040519150601f19603f3d011682016040523d82523d6000602084013e611b24565b606091505b509150915061116582828660608315611b3e575081611a07565b825115611b4e5782518084602001fd5b8160405162461bcd60e51b8152600401610b129190611cd2565b600060208284031215611b79578081fd5b8135611a0781611eb4565b600060208284031215611b95578081fd5b8151611a0781611ec9565b600060208284031215611bb1578081fd5b5035919050565b600060208284031215611bc9578081fd5b5051919050565b60008060408385031215611be2578081fd5b823591506020830135611bf481611eb4565b809150509250929050565b600080600060608486031215611c13578081fd5b833592506020840135611c2581611eb4565b91506040840135611c3581611eb4565b809150509250925092565b600080600060608486031215611c54578283fd5b83359250602084013591506040840135611c3581611eb4565b60008060008060808587031215611c82578081fd5b84359350602085013592506040850135611c9b81611eb4565b91506060850135611cab81611ec9565b939692955090935050565b60008251611cc8818460208701611e57565b9190910192915050565b6020815260008251806020840152611cf1816040850160208701611e57565b601f01601f19169190910160400192915050565b6020808252818101527f4f776e61626c653a2063616c6c6572206973206e6f7420746865206f776e6572604082015260600190565b9485526001600160a01b0393841660208601529190921660408401526060830191909152608082015260a00190565b600080821280156001600160ff1b0384900385131615611d8b57611d8b611e9e565b600160ff1b8390038412811615611da457611da4611e9e565b50500190565b60008219821115611dbd57611dbd611e9e565b500190565b600082611ddd57634e487b7160e01b81526012600452602481fd5b500490565b6000816000190483118215151615611dfc57611dfc611e9e565b500290565b60008083128015600160ff1b850184121615611e1f57611e1f611e9e565b6001600160ff1b0384018313811615611e3a57611e3a611e9e565b50500390565b600082821015611e5257611e52611e9e565b500390565b60005b83811015611e72578181015183820152602001611e5a565b8381111561187b5750506000910152565b6000600019821415611e9757611e97611e9e565b5060010190565b634e487b7160e01b600052601160045260246000fd5b6001600160a01b038116811461176057600080fd5b801515811461176057600080fdfea2646970667358221220ef118cf09ddd0d1dacf7828c35756c774d5c6b59a584e794f820d7b677dfedaa64736f6c63430008040033",
  "devdoc": {
    "kind": "dev",
    "methods": {
      "add(uint256,address,address)": {
        "params": {
          "_lpToken": "Address of the LP ERC-20 token.",
          "_rewarder": "Address of the rewarder delegate.",
          "allocPoint": "AP of the new pool."
        }
      },
      "deposit(uint256,uint256,address)": {
        "params": {
          "amount": "LP token amount to deposit.",
          "pid": "The index of the pool. See `poolInfo`.",
          "to": "The receiver of `amount` deposit benefit."
        }
      },
      "emergencyWithdraw(uint256,address)": {
        "params": {
          "pid": "The index of the pool. See `poolInfo`.",
          "to": "Receiver of the LP tokens."
        }
      },
      "harvest(uint256,address)": {
        "params": {
          "pid": "The index of the pool. See `poolInfo`.",
          "to": "Receiver of rewards."
        }
      },
      "owner()": {
        "details": "Returns the address of the current owner."
      },
      "pendingReward(uint256,address)": {
        "params": {
          "_pid": "The index of the pool. See `poolInfo`.",
          "_user": "Address of user."
        },
        "returns": {
          "pending": "reward for a given user."
        }
      },
      "renounceOwnership()": {
        "details": "Leaves the contract without owner. It will not be possible to call `onlyOwner` functions anymore. Can only be called by the current owner. NOTE: Renouncing ownership will leave the contract without an owner, thereby removing any functionality that is only available to the owner."
      },
      "set(uint256,uint256,address,bool)": {
        "params": {
          "_allocPoint": "New AP of the pool.",
          "_pid": "The index of the pool. See `poolInfo`.",
          "_rewarder": "Address of the rewarder delegate.",
          "overwrite": "True if _rewarder should be `set`. Otherwise `_rewarder` is ignored."
        }
      },
      "setRewardMinter(address)": {
        "params": {
          "_rewardMinter": "Address of MultiFeeDistribution contract"
        }
      },
      "setRewardPerSecond(uint256)": {
        "params": {
          "_rewardPerSecond": "The amount of reward to be distributed per second."
        }
      },
      "transferOwnership(address)": {
        "details": "Transfers ownership of the contract to a new account (`newOwner`). Can only be called by the current owner."
      },
      "updatePool(uint256)": {
        "params": {
          "pid": "The index of the pool. See `poolInfo`."
        },
        "returns": {
          "pool": "Returns the pool that was updated."
        }
      },
      "withdraw(uint256,uint256,address)": {
        "params": {
          "amount": "LP token amount to withdraw.",
          "pid": "The index of the pool. See `poolInfo`.",
          "to": "Receiver of the LP tokens."
        }
      },
      "withdrawAndHarvest(uint256,uint256,address)": {
        "params": {
          "amount": "LP token amount to withdraw.",
          "pid": "The index of the pool. See `poolInfo`.",
          "to": "Receiver of the LP tokens and rewards."
        }
      }
    },
    "stateVariables": {
      "totalAllocPoint": {
        "details": "Total allocation points. Must be the sum of all allocation points in all pools."
      }
    },
    "version": 1
  },
  "userdoc": {
    "kind": "user",
    "methods": {
      "add(uint256,address,address)": {
        "notice": "Add a new LP to the pool. Can only be called by the owner. DO NOT add the same LP token more than once. Rewards will be messed up if you do."
      },
      "deposit(uint256,uint256,address)": {
        "notice": "Deposit LP tokens to MCV2 for reward allocation."
      },
      "emergencyWithdraw(uint256,address)": {
        "notice": "Withdraw without caring about rewards. EMERGENCY ONLY."
      },
      "harvest(uint256,address)": {
        "notice": "Harvest proceeds for transaction sender to `to`."
      },
      "lpToken(uint256)": {
        "notice": "Address of the LP token for each MCV2 pool."
      },
      "massUpdatePools()": {
        "notice": "Update reward variables for all pools. Be careful of gas spending!"
      },
      "pendingReward(uint256,address)": {
        "notice": "View function to see pending reward on frontend."
      },
      "poolInfo(uint256)": {
        "notice": "Info of each MCV2 pool."
      },
      "poolLength()": {
        "notice": "Returns the number of MCV2 pools."
      },
      "rewarder(uint256)": {
        "notice": "Address of each `IRewarder` contract in MCV2."
      },
      "set(uint256,uint256,address,bool)": {
        "notice": "Update the given pool's reward allocation point and `IRewarder` contract. Can only be called by the owner."
      },
      "setRewardMinter(address)": {
        "notice": "Set the address of rewardMinter.  Can only be called ONCE by the owner."
      },
      "setRewardPerSecond(uint256)": {
        "notice": "Sets the reward per second to be distributed. Can only be called by the owner."
      },
      "updatePool(uint256)": {
        "notice": "Update reward variables of the given pool."
      },
      "userInfo(uint256,address)": {
        "notice": "Info of each user that stakes LP tokens."
      },
      "withdraw(uint256,uint256,address)": {
        "notice": "Withdraw LP tokens from MCV2."
      },
      "withdrawAndHarvest(uint256,uint256,address)": {
        "notice": "Withdraw LP tokens from MCV2 and harvest proceeds for transaction sender to `to`."
      }
    },
    "version": 1
  },
  "storageLayout": {
    "storage": [
      {
        "astId": 7,
        "contract": "contracts/farms/FantasticChef.sol:FantasticChef",
        "label": "_owner",
        "offset": 0,
        "slot": "0",
        "type": "t_address"
      },
      {
        "astId": 4483,
        "contract": "contracts/farms/FantasticChef.sol:FantasticChef",
        "label": "rewardMinter",
        "offset": 0,
        "slot": "1",
        "type": "t_contract(IFantasticStaking)8221"
      },
      {
        "astId": 4488,
        "contract": "contracts/farms/FantasticChef.sol:FantasticChef",
        "label": "poolInfo",
        "offset": 0,
        "slot": "2",
        "type": "t_array(t_struct(PoolInfo)4480_storage)dyn_storage"
      },
      {
        "astId": 4493,
        "contract": "contracts/farms/FantasticChef.sol:FantasticChef",
        "label": "lpToken",
        "offset": 0,
        "slot": "3",
        "type": "t_array(t_contract(IERC20)884)dyn_storage"
      },
      {
        "astId": 4498,
        "contract": "contracts/farms/FantasticChef.sol:FantasticChef",
        "label": "rewarder",
        "offset": 0,
        "slot": "4",
        "type": "t_array(t_contract(IRewarder)8329)dyn_storage"
      },
      {
        "astId": 4506,
        "contract": "contracts/farms/FantasticChef.sol:FantasticChef",
        "label": "userInfo",
        "offset": 0,
        "slot": "5",
        "type": "t_mapping(t_uint256,t_mapping(t_address,t_struct(UserInfo)4473_storage))"
      },
      {
        "astId": 4510,
        "contract": "contracts/farms/FantasticChef.sol:FantasticChef",
        "label": "totalAllocPoint",
        "offset": 0,
        "slot": "6",
        "type": "t_uint256"
      },
      {
        "astId": 4512,
        "contract": "contracts/farms/FantasticChef.sol:FantasticChef",
        "label": "rewardPerSecond",
        "offset": 0,
        "slot": "7",
        "type": "t_uint256"
      }
    ],
    "types": {
      "t_address": {
        "encoding": "inplace",
        "label": "address",
        "numberOfBytes": "20"
      },
      "t_array(t_contract(IERC20)884)dyn_storage": {
        "base": "t_contract(IERC20)884",
        "encoding": "dynamic_array",
        "label": "contract IERC20[]",
        "numberOfBytes": "32"
      },
      "t_array(t_contract(IRewarder)8329)dyn_storage": {
        "base": "t_contract(IRewarder)8329",
        "encoding": "dynamic_array",
        "label": "contract IRewarder[]",
        "numberOfBytes": "32"
      },
      "t_array(t_struct(PoolInfo)4480_storage)dyn_storage": {
        "base": "t_struct(PoolInfo)4480_storage",
        "encoding": "dynamic_array",
        "label": "struct FantasticChef.PoolInfo[]",
        "numberOfBytes": "32"
      },
      "t_contract(IERC20)884": {
        "encoding": "inplace",
        "label": "contract IERC20",
        "numberOfBytes": "20"
      },
      "t_contract(IFantasticStaking)8221": {
        "encoding": "inplace",
        "label": "contract IFantasticStaking",
        "numberOfBytes": "20"
      },
      "t_contract(IRewarder)8329": {
        "encoding": "inplace",
        "label": "contract IRewarder",
        "numberOfBytes": "20"
      },
      "t_int256": {
        "encoding": "inplace",
        "label": "int256",
        "numberOfBytes": "32"
      },
      "t_mapping(t_address,t_struct(UserInfo)4473_storage)": {
        "encoding": "mapping",
        "key": "t_address",
        "label": "mapping(address => struct FantasticChef.UserInfo)",
        "numberOfBytes": "32",
        "value": "t_struct(UserInfo)4473_storage"
      },
      "t_mapping(t_uint256,t_mapping(t_address,t_struct(UserInfo)4473_storage))": {
        "encoding": "mapping",
        "key": "t_uint256",
        "label": "mapping(uint256 => mapping(address => struct FantasticChef.UserInfo))",
        "numberOfBytes": "32",
        "value": "t_mapping(t_address,t_struct(UserInfo)4473_storage)"
      },
      "t_struct(PoolInfo)4480_storage": {
        "encoding": "inplace",
        "label": "struct FantasticChef.PoolInfo",
        "members": [
          {
            "astId": 4475,
            "contract": "contracts/farms/FantasticChef.sol:FantasticChef",
            "label": "accRewardPerShare",
            "offset": 0,
            "slot": "0",
            "type": "t_uint256"
          },
          {
            "astId": 4477,
            "contract": "contracts/farms/FantasticChef.sol:FantasticChef",
            "label": "lastRewardTime",
            "offset": 0,
            "slot": "1",
            "type": "t_uint256"
          },
          {
            "astId": 4479,
            "contract": "contracts/farms/FantasticChef.sol:FantasticChef",
            "label": "allocPoint",
            "offset": 0,
            "slot": "2",
            "type": "t_uint256"
          }
        ],
        "numberOfBytes": "96"
      },
      "t_struct(UserInfo)4473_storage": {
        "encoding": "inplace",
        "label": "struct FantasticChef.UserInfo",
        "members": [
          {
            "astId": 4470,
            "contract": "contracts/farms/FantasticChef.sol:FantasticChef",
            "label": "amount",
            "offset": 0,
            "slot": "0",
            "type": "t_uint256"
          },
          {
            "astId": 4472,
            "contract": "contracts/farms/FantasticChef.sol:FantasticChef",
            "label": "rewardDebt",
            "offset": 0,
            "slot": "1",
            "type": "t_int256"
          }
        ],
        "numberOfBytes": "64"
      },
      "t_uint256": {
        "encoding": "inplace",
        "label": "uint256",
        "numberOfBytes": "32"
      }
    }
  }
}