{
  "address": "0x474fC9A764EBcBa3bd48A9A565ece5A25A8a112e",
  "abi": [
    {
      "inputs": [
        {
          "internalType": "contract IFantasticStaking",
          "name": "_staking",
          "type": "address"
        }
      ],
      "stateMutability": "nonpayable",
      "type": "constructor"
    },
    {
      "anonymous": false,
      "inputs": [
        {
          "indexed": true,
          "internalType": "address",
          "name": "_requester",
          "type": "address"
        },
        {
          "indexed": false,
          "internalType": "uint256",
          "name": "_amount",
          "type": "uint256"
        }
      ],
      "name": "FundRequested",
      "type": "event"
    },
    {
      "anonymous": false,
      "inputs": [
        {
          "indexed": true,
          "internalType": "address",
          "name": "previousOwner",
          "type": "address"
        },
        {
          "indexed": true,
          "internalType": "address",
          "name": "newOwner",
          "type": "address"
        }
      ],
      "name": "OwnershipTransferred",
      "type": "event"
    },
    {
      "anonymous": false,
      "inputs": [
        {
          "indexed": true,
          "internalType": "address",
          "name": "_strategy",
          "type": "address"
        }
      ],
      "name": "StrategyAdded",
      "type": "event"
    },
    {
      "anonymous": false,
      "inputs": [
        {
          "indexed": true,
          "internalType": "address",
          "name": "_strategy",
          "type": "address"
        }
      ],
      "name": "StrategyRemoved",
      "type": "event"
    },
    {
      "anonymous": false,
      "inputs": [
        {
          "indexed": true,
          "internalType": "address",
          "name": "_token",
          "type": "address"
        },
        {
          "indexed": false,
          "internalType": "uint256",
          "name": "_amount",
          "type": "uint256"
        }
      ],
      "name": "TokenRewardAllocated",
      "type": "event"
    },
    {
      "inputs": [
        {
          "internalType": "address",
          "name": "_strategy",
          "type": "address"
        }
      ],
      "name": "addStrategy",
      "outputs": [],
      "stateMutability": "nonpayable",
      "type": "function"
    },
    {
      "inputs": [
        {
          "internalType": "address",
          "name": "_token",
          "type": "address"
        },
        {
          "internalType": "uint256",
          "name": "_amount",
          "type": "uint256"
        }
      ],
      "name": "allocateFee",
      "outputs": [],
      "stateMutability": "nonpayable",
      "type": "function"
    },
    {
      "inputs": [
        {
          "internalType": "address",
          "name": "_token",
          "type": "address"
        }
      ],
      "name": "balanceOf",
      "outputs": [
        {
          "internalType": "uint256",
          "name": "",
          "type": "uint256"
        }
      ],
      "stateMutability": "view",
      "type": "function"
    },
    {
      "inputs": [],
      "name": "owner",
      "outputs": [
        {
          "internalType": "address",
          "name": "",
          "type": "address"
        }
      ],
      "stateMutability": "view",
      "type": "function"
    },
    {
      "inputs": [
        {
          "internalType": "address",
          "name": "_strategy",
          "type": "address"
        }
      ],
      "name": "removeStrategy",
      "outputs": [],
      "stateMutability": "nonpayable",
      "type": "function"
    },
    {
      "inputs": [],
      "name": "renounceOwnership",
      "outputs": [],
      "stateMutability": "nonpayable",
      "type": "function"
    },
    {
      "inputs": [
        {
          "internalType": "address",
          "name": "_token",
          "type": "address"
        },
        {
          "internalType": "uint256",
          "name": "_amount",
          "type": "uint256"
        }
      ],
      "name": "requestFund",
      "outputs": [],
      "stateMutability": "nonpayable",
      "type": "function"
    },
    {
      "inputs": [],
      "name": "staking",
      "outputs": [
        {
          "internalType": "contract IFantasticStaking",
          "name": "",
          "type": "address"
        }
      ],
      "stateMutability": "view",
      "type": "function"
    },
    {
      "inputs": [
        {
          "internalType": "address",
          "name": "",
          "type": "address"
        }
      ],
      "name": "strategies",
      "outputs": [
        {
          "internalType": "bool",
          "name": "",
          "type": "bool"
        }
      ],
      "stateMutability": "view",
      "type": "function"
    },
    {
      "inputs": [
        {
          "internalType": "uint256",
          "name": "",
          "type": "uint256"
        }
      ],
      "name": "strategiesArray",
      "outputs": [
        {
          "internalType": "address",
          "name": "",
          "type": "address"
        }
      ],
      "stateMutability": "view",
      "type": "function"
    },
    {
      "inputs": [
        {
          "internalType": "address",
          "name": "newOwner",
          "type": "address"
        }
      ],
      "name": "transferOwnership",
      "outputs": [],
      "stateMutability": "nonpayable",
      "type": "function"
    }
  ],
  "transactionHash": "0xdbef461141a2803d5e614316fc5ef63cf622b666d51c43041943b0ddfe700963",
  "args": [
    "0xd26CfAcF9173f01b61B9BE5FE50Ff3e02a6aafFF"
  ],
  "numDeployments": 1,
  "solcInputHash": "e3b934c02ffbee22c3654f8fe1ecc068",
  "bytecode": "0x608060405234801561001057600080fd5b5060405161102c38038061102c83398101604081905261002f916100ad565b6100383361005d565b600380546001600160a01b0319166001600160a01b03929092169190911790556100db565b600080546001600160a01b038381166001600160a01b0319831681178455604051919092169283917f8be0079c531659141344cd1fd0a4f28419497f9722a3daafe3b4186f6b6457e09190a35050565b6000602082840312156100be578081fd5b81516001600160a01b03811681146100d4578182fd5b9392505050565b610f42806100ea6000396000f3fe608060405234801561001057600080fd5b50600436106100a95760003560e01c806370a082311161007157806370a082311461014c578063715018a61461016d5780638da5cb5b14610175578063ab1e912214610186578063b474512514610199578063f2fde38b146101ac57600080fd5b8063175188e8146100ae578063223e5479146100c357806339ebf823146100d65780634cf088d91461010e5780635963e2ad14610139575b600080fd5b6100c16100bc366004610d80565b6101bf565b005b6100c16100d1366004610d80565b610389565b6100f96100e4366004610d80565b60016020526000908152604090205460ff1681565b60405190151581526020015b60405180910390f35b600354610121906001600160a01b031681565b6040516001600160a01b039091168152602001610105565b6100c1610147366004610d9a565b61053c565b61015f61015a366004610d80565b61070b565b604051908152602001610105565b6100c161078b565b6000546001600160a01b0316610121565b610121610194366004610de3565b6107c1565b6100c16101a7366004610d9a565b6107eb565b6100c16101ba366004610d80565b610936565b6000546001600160a01b031633146101f25760405162461bcd60e51b81526004016101e990610e62565b60405180910390fd5b6001600160a01b03811660009081526001602052604090205460ff166102785760405162461bcd60e51b815260206004820152603560248201527f46616e74617374696354726561737572793a3a72656d6f7665537472617465676044820152741e4e881cdd1c985d1959de481b9bdd08199bdd5b99605a1b60648201526084016101e9565b6001600160a01b0381166000908152600160205260408120805460ff191690555b60025481101561035157816001600160a01b0316600282815481106102ce57634e487b7160e01b600052603260045260246000fd5b6000918252602090912001546001600160a01b0316141561033f5760006002828154811061030c57634e487b7160e01b600052603260045260246000fd5b9060005260206000200160006101000a8154816001600160a01b0302191690836001600160a01b03160217905550610351565b8061034981610edb565b915050610299565b506040516001600160a01b038216907f09a1db4b80c32706328728508c941a6b954f31eb5affd32f236c1fd405f8fea490600090a250565b6000546001600160a01b031633146103b35760405162461bcd60e51b81526004016101e990610e62565b6001600160a01b0381166104215760405162461bcd60e51b815260206004820152602f60248201527f46616e74617374696354726561737572793a3a61646453747261746567793a2060448201526e696e76616c6964206164647265737360881b60648201526084016101e9565b6001600160a01b03811660009081526001602052604090205460ff16156104b05760405162461bcd60e51b815260206004820152603d60248201527f46616e74617374696354726561737572793a3a61646453747261746567793a2060448201527f7374726174656779207761732070726576696f75736c7920616464656400000060648201526084016101e9565b6001600160a01b0381166000818152600160208190526040808320805460ff19168317905560028054928301815583527f405787fa12a823e0f2b7631cc41b3ba8828b3321ca811111fa75cd3aa3bb5ace90910180546001600160a01b03191684179055517f3f008fd510eae7a9e7bee13513d7b83bef8003d488b5a3d0b0da4de71d6846f19190a250565b6000546001600160a01b031633146105665760405162461bcd60e51b81526004016101e990610e62565b6003546001600160a01b03166105dd5760405162461bcd60e51b815260206004820152603660248201527f46616e74617374696354726561737572793a3a616c6c6f636174654665653a46604482015275195948191a5cdd1c9a589d5d1bdc881b9bdd081cd95d60521b60648201526084016101e9565b600081116106445760405162461bcd60e51b815260206004820152602e60248201527f46616e74617374696354726561737572793a3a616c6c6f636174654665653a2060448201526d1a5b9d985b1a5908185b5bdd5b9d60921b60648201526084016101e9565b60035461065e906001600160a01b038481169116836109d1565b60035460405163b66503cf60e01b81526001600160a01b038481166004830152602482018490529091169063b66503cf90604401600060405180830381600087803b1580156106ac57600080fd5b505af11580156106c0573d6000803e3d6000fd5b50505050816001600160a01b03167f6d2dbeb83c612f93fc06a5a8d74ebf64946ae126076c60c7f3b69c05ecdbd3a4826040516106ff91815260200190565b60405180910390a25050565b6040516370a0823160e01b81523060048201526000906001600160a01b038316906370a082319060240160206040518083038186803b15801561074d57600080fd5b505afa158015610761573d6000803e3d6000fd5b505050506040513d601f19601f820116820180604052508101906107859190610dfb565b92915050565b6000546001600160a01b031633146107b55760405162461bcd60e51b81526004016101e990610e62565b6107bf6000610aba565b565b600281815481106107d157600080fd5b6000918252602090912001546001600160a01b0316905081565b3360009081526001602052604090205460ff16610872576040805162461bcd60e51b81526020600482015260248101919091527f46616e74617374696354726561737572793a3a7265717565737446756e643a2060448201527f4f6e6c7920737472617465676965732063616e20726571756573742066756e6460648201526084016101e9565b61087b8261070b565b8111156108f05760405162461bcd60e51b815260206004820152603e60248201527f46616e74617374696354726561737572793a3a7265717565737446756e643a2060448201527f52657175657374206d6f72652066756e64207468616e2062616c616e6365000060648201526084016101e9565b6109046001600160a01b03831633836109d1565b60405181815233907fc01885824d09db2a2cad0d38d82321fdb9026a98b421d8ffdacb61e52310750d906020016106ff565b6000546001600160a01b031633146109605760405162461bcd60e51b81526004016101e990610e62565b6001600160a01b0381166109c55760405162461bcd60e51b815260206004820152602660248201527f4f776e61626c653a206e6577206f776e657220697320746865207a65726f206160448201526564647265737360d01b60648201526084016101e9565b6109ce81610aba565b50565b604051636eb1769f60e11b81523060048201526001600160a01b038381166024830152600091839186169063dd62ed3e9060440160206040518083038186803b158015610a1d57600080fd5b505afa158015610a31573d6000803e3d6000fd5b505050506040513d601f19601f82011682018060405250810190610a559190610dfb565b610a5f9190610e97565b604080516001600160a01b038616602482015260448082018490528251808303909101815260649091019091526020810180516001600160e01b031663095ea7b360e01b179052909150610ab4908590610b0a565b50505050565b600080546001600160a01b038381166001600160a01b0319831681178455604051919092169283917f8be0079c531659141344cd1fd0a4f28419497f9722a3daafe3b4186f6b6457e09190a35050565b6000610b5f826040518060400160405280602081526020017f5361666545524332303a206c6f772d6c6576656c2063616c6c206661696c6564815250856001600160a01b0316610be19092919063ffffffff16565b805190915015610bdc5780806020019051810190610b7d9190610dc3565b610bdc5760405162461bcd60e51b815260206004820152602a60248201527f5361666545524332303a204552433230206f7065726174696f6e20646964206e6044820152691bdd081cdd58d8d9595960b21b60648201526084016101e9565b505050565b6060610bf08484600085610bfa565b90505b9392505050565b606082471015610c5b5760405162461bcd60e51b815260206004820152602660248201527f416464726573733a20696e73756666696369656e742062616c616e636520666f6044820152651c8818d85b1b60d21b60648201526084016101e9565b6001600160a01b0385163b610cb25760405162461bcd60e51b815260206004820152601d60248201527f416464726573733a2063616c6c20746f206e6f6e2d636f6e747261637400000060448201526064016101e9565b600080866001600160a01b03168587604051610cce9190610e13565b60006040518083038185875af1925050503d8060008114610d0b576040519150601f19603f3d011682016040523d82523d6000602084013e610d10565b606091505b5091509150610d20828286610d2b565b979650505050505050565b60608315610d3a575081610bf3565b825115610d4a5782518084602001fd5b8160405162461bcd60e51b81526004016101e99190610e2f565b80356001600160a01b0381168114610d7b57600080fd5b919050565b600060208284031215610d91578081fd5b610bf382610d64565b60008060408385031215610dac578081fd5b610db583610d64565b946020939093013593505050565b600060208284031215610dd4578081fd5b81518015158114610bf3578182fd5b600060208284031215610df4578081fd5b5035919050565b600060208284031215610e0c578081fd5b5051919050565b60008251610e25818460208701610eaf565b9190910192915050565b6020815260008251806020840152610e4e816040850160208701610eaf565b601f01601f19169190910160400192915050565b6020808252818101527f4f776e61626c653a2063616c6c6572206973206e6f7420746865206f776e6572604082015260600190565b60008219821115610eaa57610eaa610ef6565b500190565b60005b83811015610eca578181015183820152602001610eb2565b83811115610ab45750506000910152565b6000600019821415610eef57610eef610ef6565b5060010190565b634e487b7160e01b600052601160045260246000fdfea2646970667358221220397ab4840d7cf271e46f4edd132cda508555365cf22a2510da7298da5cbfcac864736f6c63430008040033",
  "devdoc": {
    "kind": "dev",
    "methods": {
      "addStrategy(address)": {
        "params": {
          "_strategy": "Address of the strategy contract"
        }
      },
      "allocateFee(address,uint256)": {
        "params": {
          "_amount": "Amount of fee will be distributed",
          "_token": "Address of ERC-20 token"
        }
      },
      "balanceOf(address)": {
        "params": {
          "_token": "Address of the ERC-20 token"
        },
        "returns": {
          "_0": "Balance of the FantasticTreasury"
        }
      },
      "owner()": {
        "details": "Returns the address of the current owner."
      },
      "removeStrategy(address)": {
        "params": {
          "_strategy": "Address of the strategy contract"
        }
      },
      "renounceOwnership()": {
        "details": "Leaves the contract without owner. It will not be possible to call `onlyOwner` functions anymore. Can only be called by the current owner. NOTE: Renouncing ownership will leave the contract without an owner, thereby removing any functionality that is only available to the owner."
      },
      "requestFund(address,uint256)": {
        "params": {
          "_amount": "The requested amount",
          "_token": "Address of the ERC-20 token"
        }
      },
      "transferOwnership(address)": {
        "details": "Transfers ownership of the contract to a new account (`newOwner`). Can only be called by the current owner."
      }
    },
    "version": 1
  },
  "userdoc": {
    "kind": "user",
    "methods": {
      "addStrategy(address)": {
        "notice": "Add new strategy"
      },
      "allocateFee(address,uint256)": {
        "notice": "Allocate protocol's fee to stakers"
      },
      "balanceOf(address)": {
        "notice": "Return ERC-20 balance of FantasticTreasury"
      },
      "removeStrategy(address)": {
        "notice": "Remove current strategy"
      },
      "requestFund(address,uint256)": {
        "notice": "Request fund from Reserve - only can be called from whitelisted strategies"
      }
    },
    "version": 1
  },
  "storageLayout": {
    "storage": [
      {
        "astId": 7,
        "contract": "contracts/treasury/FantasticTreasury.sol:FantasticTreasury",
        "label": "_owner",
        "offset": 0,
        "slot": "0",
        "type": "t_address"
      },
      {
        "astId": 9737,
        "contract": "contracts/treasury/FantasticTreasury.sol:FantasticTreasury",
        "label": "strategies",
        "offset": 0,
        "slot": "1",
        "type": "t_mapping(t_address,t_bool)"
      },
      {
        "astId": 9740,
        "contract": "contracts/treasury/FantasticTreasury.sol:FantasticTreasury",
        "label": "strategiesArray",
        "offset": 0,
        "slot": "2",
        "type": "t_array(t_address)dyn_storage"
      },
      {
        "astId": 9743,
        "contract": "contracts/treasury/FantasticTreasury.sol:FantasticTreasury",
        "label": "staking",
        "offset": 0,
        "slot": "3",
        "type": "t_contract(IFantasticStaking)8221"
      }
    ],
    "types": {
      "t_address": {
        "encoding": "inplace",
        "label": "address",
        "numberOfBytes": "20"
      },
      "t_array(t_address)dyn_storage": {
        "base": "t_address",
        "encoding": "dynamic_array",
        "label": "address[]",
        "numberOfBytes": "32"
      },
      "t_bool": {
        "encoding": "inplace",
        "label": "bool",
        "numberOfBytes": "1"
      },
      "t_contract(IFantasticStaking)8221": {
        "encoding": "inplace",
        "label": "contract IFantasticStaking",
        "numberOfBytes": "20"
      },
      "t_mapping(t_address,t_bool)": {
        "encoding": "mapping",
        "key": "t_address",
        "label": "mapping(address => bool)",
        "numberOfBytes": "32",
        "value": "t_bool"
      }
    }
  }
}