{
  "address": "0x4602Abb58E7874A7FB0EA7cD2A6093A87B8db591",
  "abi": [
    {
      "anonymous": false,
      "inputs": [
        {
          "indexed": true,
          "internalType": "address",
          "name": "previousOwner",
          "type": "address"
        },
        {
          "indexed": true,
          "internalType": "address",
          "name": "newOwner",
          "type": "address"
        }
      ],
      "name": "OwnershipTransferred",
      "type": "event"
    },
    {
      "inputs": [],
      "name": "ALLOCATION",
      "outputs": [
        {
          "internalType": "uint256",
          "name": "",
          "type": "uint256"
        }
      ],
      "stateMutability": "view",
      "type": "function"
    },
    {
      "inputs": [],
      "name": "VESTING_DURATION",
      "outputs": [
        {
          "internalType": "uint256",
          "name": "",
          "type": "uint256"
        }
      ],
      "stateMutability": "view",
      "type": "function"
    },
    {
      "inputs": [],
      "name": "VESTING_START",
      "outputs": [
        {
          "internalType": "uint256",
          "name": "",
          "type": "uint256"
        }
      ],
      "stateMutability": "view",
      "type": "function"
    },
    {
      "inputs": [],
      "name": "allocation",
      "outputs": [
        {
          "internalType": "uint256",
          "name": "",
          "type": "uint256"
        }
      ],
      "stateMutability": "pure",
      "type": "function"
    },
    {
      "inputs": [],
      "name": "claimable",
      "outputs": [
        {
          "internalType": "uint256",
          "name": "",
          "type": "uint256"
        }
      ],
      "stateMutability": "view",
      "type": "function"
    },
    {
      "inputs": [],
      "name": "claimedAmount",
      "outputs": [
        {
          "internalType": "uint256",
          "name": "",
          "type": "uint256"
        }
      ],
      "stateMutability": "view",
      "type": "function"
    },
    {
      "inputs": [],
      "name": "currentBalance",
      "outputs": [
        {
          "internalType": "uint256",
          "name": "",
          "type": "uint256"
        }
      ],
      "stateMutability": "view",
      "type": "function"
    },
    {
      "inputs": [],
      "name": "fsm",
      "outputs": [
        {
          "internalType": "contract IERC20",
          "name": "",
          "type": "address"
        }
      ],
      "stateMutability": "view",
      "type": "function"
    },
    {
      "inputs": [
        {
          "internalType": "address",
          "name": "_fsm",
          "type": "address"
        }
      ],
      "name": "initialize",
      "outputs": [],
      "stateMutability": "nonpayable",
      "type": "function"
    },
    {
      "inputs": [],
      "name": "owner",
      "outputs": [
        {
          "internalType": "address",
          "name": "",
          "type": "address"
        }
      ],
      "stateMutability": "view",
      "type": "function"
    },
    {
      "inputs": [],
      "name": "renounceOwnership",
      "outputs": [],
      "stateMutability": "nonpayable",
      "type": "function"
    },
    {
      "inputs": [
        {
          "internalType": "address",
          "name": "receiver",
          "type": "address"
        },
        {
          "internalType": "uint256",
          "name": "amount",
          "type": "uint256"
        }
      ],
      "name": "transfer",
      "outputs": [],
      "stateMutability": "nonpayable",
      "type": "function"
    },
    {
      "inputs": [
        {
          "internalType": "address",
          "name": "newOwner",
          "type": "address"
        }
      ],
      "name": "transferOwnership",
      "outputs": [],
      "stateMutability": "nonpayable",
      "type": "function"
    },
    {
      "inputs": [],
      "name": "vestedBalance",
      "outputs": [
        {
          "internalType": "uint256",
          "name": "",
          "type": "uint256"
        }
      ],
      "stateMutability": "view",
      "type": "function"
    },
    {
      "inputs": [],
      "name": "vestingDuration",
      "outputs": [
        {
          "internalType": "uint256",
          "name": "",
          "type": "uint256"
        }
      ],
      "stateMutability": "pure",
      "type": "function"
    },
    {
      "inputs": [],
      "name": "vestingStart",
      "outputs": [
        {
          "internalType": "uint256",
          "name": "",
          "type": "uint256"
        }
      ],
      "stateMutability": "pure",
      "type": "function"
    }
  ],
  "transactionHash": "0x837cd83d7e1caa4237c367ca7c280dc37870b1cec983913c470640a3533d4494",
  "args": [],
  "numDeployments": 1,
  "solcInputHash": "12f2a450255a56d306c61999a279f4c6",
  "bytecode": "0x608060405234801561001057600080fd5b5061001a3361001f565b61006f565b600080546001600160a01b038381166001600160a01b0319831681178455604051919092169283917f8be0079c531659141344cd1fd0a4f28419497f9722a3daafe3b4186f6b6457e09190a35050565b610b7c8061007e6000396000f3fe608060405234801561001057600080fd5b50600436106101005760003560e01c80638da5cb5b11610097578063c4d66de811610066578063c4d66de8146101cc578063ce845d1d146101df578063cfd11c4f146101e7578063f2fde38b146101f257600080fd5b80638da5cb5b146101975780639668ceb8146101a8578063a9059cbb146101b1578063af38d757146101c457600080fd5b80634cfc4d30116100d35780634cfc4d301461015f578063715018a61461016a578063889646ea1461017457806388a17bde1461018657600080fd5b8063016a0a4d146101055780631514617e14610120578063254800d41461012a57806325b2cda114610134575b600080fd5b61010d610205565b6040519081526020015b60405180910390f35b6303c2670061010d565b6362864d6061010d565b600154610147906001600160a01b031681565b6040516001600160a01b039091168152602001610117565b61010d6303c2670081565b61017261026e565b005b61010d6a027b46536c66c8e300000081565b6a027b46536c66c8e300000061010d565b6000546001600160a01b0316610147565b61010d60025481565b6101726101bf3660046109ad565b6102ad565b61010d610400565b6101726101da366004610993565b61041c565b61010d610564565b61010d6362864d6081565b610172610200366004610993565b6105e0565b60006a027b46536c66c8e30000006362864d606303c2670042821061022e576000935050505090565b6102388183610a92565b42111561024757509092915050565b806102528342610ae9565b61025c9085610aca565b6102669190610aaa565b935050505090565b6000546001600160a01b031633146102a15760405162461bcd60e51b815260040161029890610a5d565b60405180910390fd5b6102ab600061067b565b565b6000546001600160a01b031633146102d75760405162461bcd60e51b815260040161029890610a5d565b6001600160a01b03821661032d5760405162461bcd60e51b815260206004820152601f60248201527f46756e643a3a7472616e736665723a20496e76616c69642061646472657373006044820152606401610298565b6000811161037d5760405162461bcd60e51b815260206004820152601e60248201527f46756e643a3a7472616e736665723a20496e76616c696420616d6f756e7400006044820152606401610298565b610385610400565b8111156103d45760405162461bcd60e51b815260206004820152601e60248201527f46756e643a3a7472616e736665723a203e20766573746564416d6f756e7400006044820152606401610298565b806002546103e29190610a92565b6002556001546103fc906001600160a01b031683836106cb565b5050565b600060025461040d610205565b6104179190610ae9565b905090565b600054600160a81b900460ff1661044057600054600160a01b900460ff1615610444565b303b155b6104a75760405162461bcd60e51b815260206004820152602e60248201527f496e697469616c697a61626c653a20636f6e747261637420697320616c72656160448201526d191e481a5b9a5d1a585b1a5e995960921b6064820152608401610298565b600054600160a81b900460ff161580156104d1576000805461ffff60a01b191661010160a01b1790555b6001600160a01b0382166105325760405162461bcd60e51b815260206004820152602260248201527f46756e643a3a636f6e7374727563746f723a20496e76616c6964206164647265604482015261737360f01b6064820152608401610298565b600180546001600160a01b0319166001600160a01b03841617905580156103fc576000805460ff60a81b191690555050565b6001546040516370a0823160e01b81523060048201526000916001600160a01b0316906370a082319060240160206040518083038186803b1580156105a857600080fd5b505afa1580156105bc573d6000803e3d6000fd5b505050506040513d601f19601f8201168201806040525081019061041791906109f6565b6000546001600160a01b0316331461060a5760405162461bcd60e51b815260040161029890610a5d565b6001600160a01b03811661066f5760405162461bcd60e51b815260206004820152602660248201527f4f776e61626c653a206e6577206f776e657220697320746865207a65726f206160448201526564647265737360d01b6064820152608401610298565b6106788161067b565b50565b600080546001600160a01b038381166001600160a01b0319831681178455604051919092169283917f8be0079c531659141344cd1fd0a4f28419497f9722a3daafe3b4186f6b6457e09190a35050565b604080516001600160a01b038416602482015260448082018490528251808303909101815260649091019091526020810180516001600160e01b031663a9059cbb60e01b17905261071d908490610722565b505050565b6000610777826040518060400160405280602081526020017f5361666545524332303a206c6f772d6c6576656c2063616c6c206661696c6564815250856001600160a01b03166107f49092919063ffffffff16565b80519091501561071d578080602001905181019061079591906109d6565b61071d5760405162461bcd60e51b815260206004820152602a60248201527f5361666545524332303a204552433230206f7065726174696f6e20646964206e6044820152691bdd081cdd58d8d9595960b21b6064820152608401610298565b6060610803848460008561080d565b90505b9392505050565b60608247101561086e5760405162461bcd60e51b815260206004820152602660248201527f416464726573733a20696e73756666696369656e742062616c616e636520666f6044820152651c8818d85b1b60d21b6064820152608401610298565b6001600160a01b0385163b6108c55760405162461bcd60e51b815260206004820152601d60248201527f416464726573733a2063616c6c20746f206e6f6e2d636f6e74726163740000006044820152606401610298565b600080866001600160a01b031685876040516108e19190610a0e565b60006040518083038185875af1925050503d806000811461091e576040519150601f19603f3d011682016040523d82523d6000602084013e610923565b606091505b509150915061093382828661093e565b979650505050505050565b6060831561094d575081610806565b82511561095d5782518084602001fd5b8160405162461bcd60e51b81526004016102989190610a2a565b80356001600160a01b038116811461098e57600080fd5b919050565b6000602082840312156109a4578081fd5b61080682610977565b600080604083850312156109bf578081fd5b6109c883610977565b946020939093013593505050565b6000602082840312156109e7578081fd5b81518015158114610806578182fd5b600060208284031215610a07578081fd5b5051919050565b60008251610a20818460208701610b00565b9190910192915050565b6020815260008251806020840152610a49816040850160208701610b00565b601f01601f19169190910160400192915050565b6020808252818101527f4f776e61626c653a2063616c6c6572206973206e6f7420746865206f776e6572604082015260600190565b60008219821115610aa557610aa5610b30565b500190565b600082610ac557634e487b7160e01b81526012600452602481fd5b500490565b6000816000190483118215151615610ae457610ae4610b30565b500290565b600082821015610afb57610afb610b30565b500390565b60005b83811015610b1b578181015183820152602001610b03565b83811115610b2a576000848401525b50505050565b634e487b7160e01b600052601160045260246000fdfea2646970667358221220f13eb4e0978a5614846f6c398e7b53a32a617048b6d0d1d822c2dc37241fadba64736f6c63430008040033",
  "devdoc": {
    "kind": "dev",
    "methods": {
      "owner()": {
        "details": "Returns the address of the current owner."
      },
      "renounceOwnership()": {
        "details": "Leaves the contract without owner. It will not be possible to call `onlyOwner` functions anymore. Can only be called by the current owner. NOTE: Renouncing ownership will leave the contract without an owner, thereby removing any functionality that is only available to the owner."
      },
      "transferOwnership(address)": {
        "details": "Transfers ownership of the contract to a new account (`newOwner`). Can only be called by the current owner."
      }
    },
    "version": 1
  },
  "userdoc": {
    "kind": "user",
    "methods": {},
    "version": 1
  },
  "storageLayout": {
    "storage": [
      {
        "astId": 7,
        "contract": "contracts/funds/FsmDevFund.sol:FsmDevFund",
        "label": "_owner",
        "offset": 0,
        "slot": "0",
        "type": "t_address"
      },
      {
        "astId": 111,
        "contract": "contracts/funds/FsmDevFund.sol:FsmDevFund",
        "label": "_initialized",
        "offset": 20,
        "slot": "0",
        "type": "t_bool"
      },
      {
        "astId": 114,
        "contract": "contracts/funds/FsmDevFund.sol:FsmDevFund",
        "label": "_initializing",
        "offset": 21,
        "slot": "0",
        "type": "t_bool"
      },
      {
        "astId": 8032,
        "contract": "contracts/funds/FsmDevFund.sol:FsmDevFund",
        "label": "fsm",
        "offset": 0,
        "slot": "1",
        "type": "t_contract(IERC20)884"
      },
      {
        "astId": 8034,
        "contract": "contracts/funds/FsmDevFund.sol:FsmDevFund",
        "label": "claimedAmount",
        "offset": 0,
        "slot": "2",
        "type": "t_uint256"
      }
    ],
    "types": {
      "t_address": {
        "encoding": "inplace",
        "label": "address",
        "numberOfBytes": "20"
      },
      "t_bool": {
        "encoding": "inplace",
        "label": "bool",
        "numberOfBytes": "1"
      },
      "t_contract(IERC20)884": {
        "encoding": "inplace",
        "label": "contract IERC20",
        "numberOfBytes": "20"
      },
      "t_uint256": {
        "encoding": "inplace",
        "label": "uint256",
        "numberOfBytes": "32"
      }
    }
  }
}