{
  "address": "0xdb12E8251089AAc7C133B50046A160217c0C4207",
  "abi": [
    {
      "inputs": [],
      "name": "fsm",
      "outputs": [
        {
          "internalType": "contract IERC20",
          "name": "",
          "type": "address"
        }
      ],
      "stateMutability": "view",
      "type": "function"
    },
    {
      "inputs": [
        {
          "internalType": "address",
          "name": "_fsm",
          "type": "address"
        }
      ],
      "name": "initialize",
      "outputs": [],
      "stateMutability": "nonpayable",
      "type": "function"
    },
    {
      "inputs": [],
      "name": "pool",
      "outputs": [
        {
          "internalType": "address",
          "name": "",
          "type": "address"
        }
      ],
      "stateMutability": "view",
      "type": "function"
    },
    {
      "inputs": [],
      "name": "rewarder",
      "outputs": [
        {
          "internalType": "address",
          "name": "",
          "type": "address"
        }
      ],
      "stateMutability": "view",
      "type": "function"
    },
    {
      "inputs": [
        {
          "internalType": "address",
          "name": "_pool",
          "type": "address"
        }
      ],
      "name": "setPool",
      "outputs": [
        {
          "internalType": "bool",
          "name": "",
          "type": "bool"
        }
      ],
      "stateMutability": "nonpayable",
      "type": "function"
    },
    {
      "inputs": [
        {
          "internalType": "address",
          "name": "_rewarder",
          "type": "address"
        }
      ],
      "name": "setRewarder",
      "outputs": [
        {
          "internalType": "bool",
          "name": "",
          "type": "bool"
        }
      ],
      "stateMutability": "nonpayable",
      "type": "function"
    },
    {
      "inputs": [
        {
          "internalType": "address",
          "name": "_to",
          "type": "address"
        },
        {
          "internalType": "uint256",
          "name": "_amount",
          "type": "uint256"
        }
      ],
      "name": "transfer",
      "outputs": [],
      "stateMutability": "nonpayable",
      "type": "function"
    }
  ],
  "transactionHash": "0x4d3f03fc47669ac1e85edd1314caa7c2c3cab0c3655013278e0111ddc36174b0",
  "args": [],
  "numDeployments": 1,
  "solcInputHash": "12f2a450255a56d306c61999a279f4c6",
  "bytecode": "0x608060405234801561001057600080fd5b50610883806100206000396000f3fe608060405234801561001057600080fd5b506004361061007d5760003560e01c80634437152a1161005b5780634437152a146100ee578063a9059cbb14610101578063c4d66de814610116578063dcc3e06e1461012957600080fd5b806316f0115b1461008257806325b2cda1146100b25780633a6462e4146100cb575b600080fd5b600254610095906001600160a01b031681565b6040516001600160a01b0390911681526020015b60405180910390f35b600054610095906201000090046001600160a01b031681565b6100de6100d936600461076b565b61013c565b60405190151581526020016100a9565b6100de6100fc36600461076b565b6101cd565b61011461010f366004610785565b61024f565b005b61011461012436600461076b565b610361565b600154610095906001600160a01b031681565b6001546000906001600160a01b0316156101a95760405162461bcd60e51b8152602060048201526024808201527f46736d526573657276653a3a73657452657761726465723a204e4f545f414c4c60448201526313d5d15160e21b60648201526084015b60405180910390fd5b50600180546001600160a01b0319166001600160a01b039290921691909117815590565b6002546000906001600160a01b0316156102295760405162461bcd60e51b815260206004820181905260248201527f46736d526573657276653a3a736574506f6f6c3a204e4f545f414c4c4f57454460448201526064016101a0565b50600280546001600160a01b0319166001600160a01b0392909216919091179055600190565b6001546001600160a01b031633148061027257506002546001600160a01b031633145b6102dc5760405162461bcd60e51b815260206004820152603560248201527f46736d526573657276653a3a7472616e736665723a204f6e6c7920616c6c6f7760448201527465642066756e64732063616e20776974686472617760581b60648201526084016101a0565b6001600160a01b0382166103405760405162461bcd60e51b815260206004820152602560248201527f46736d526573657276653a3a7472616e736665723a20496e76616c6964206164604482015264647265737360d81b60648201526084016101a0565b60005461035d906201000090046001600160a01b031683836104a3565b5050565b600054610100900460ff1661037c5760005460ff1615610380565b303b155b6103e35760405162461bcd60e51b815260206004820152602e60248201527f496e697469616c697a61626c653a20636f6e747261637420697320616c72656160448201526d191e481a5b9a5d1a585b1a5e995960921b60648201526084016101a0565b600054610100900460ff16158015610405576000805461ffff19166101011790555b6001600160a01b03821661046c5760405162461bcd60e51b815260206004820152602860248201527f46736d526573657276653a3a636f6e7374727563746f723a20696e76616c6964604482015267206164647265737360c01b60648201526084016101a0565b6000805462010000600160b01b031916620100006001600160a01b03851602179055801561035d576000805461ff00191690555050565b604080516001600160a01b038416602482015260448082018490528251808303909101815260649091019091526020810180516001600160e01b031663a9059cbb60e01b1790526104f59084906104fa565b505050565b600061054f826040518060400160405280602081526020017f5361666545524332303a206c6f772d6c6576656c2063616c6c206661696c6564815250856001600160a01b03166105cc9092919063ffffffff16565b8051909150156104f5578080602001905181019061056d91906107ae565b6104f55760405162461bcd60e51b815260206004820152602a60248201527f5361666545524332303a204552433230206f7065726174696f6e20646964206e6044820152691bdd081cdd58d8d9595960b21b60648201526084016101a0565b60606105db84846000856105e5565b90505b9392505050565b6060824710156106465760405162461bcd60e51b815260206004820152602660248201527f416464726573733a20696e73756666696369656e742062616c616e636520666f6044820152651c8818d85b1b60d21b60648201526084016101a0565b6001600160a01b0385163b61069d5760405162461bcd60e51b815260206004820152601d60248201527f416464726573733a2063616c6c20746f206e6f6e2d636f6e747261637400000060448201526064016101a0565b600080866001600160a01b031685876040516106b991906107ce565b60006040518083038185875af1925050503d80600081146106f6576040519150601f19603f3d011682016040523d82523d6000602084013e6106fb565b606091505b509150915061070b828286610716565b979650505050505050565b606083156107255750816105de565b8251156107355782518084602001fd5b8160405162461bcd60e51b81526004016101a091906107ea565b80356001600160a01b038116811461076657600080fd5b919050565b60006020828403121561077c578081fd5b6105de8261074f565b60008060408385031215610797578081fd5b6107a08361074f565b946020939093013593505050565b6000602082840312156107bf578081fd5b815180151581146105de578182fd5b600082516107e081846020870161081d565b9190910192915050565b602081526000825180602084015261080981604085016020870161081d565b601f01601f19169190910160400192915050565b60005b83811015610838578181015183820152602001610820565b83811115610847576000848401525b5050505056fea2646970667358221220d8780f4e6500ac92566c5eb8e80be4a230b5419ec2941357deac04fab1aaf29264736f6c63430008040033",
  "devdoc": {
    "kind": "dev",
    "methods": {},
    "version": 1
  },
  "userdoc": {
    "kind": "user",
    "methods": {},
    "version": 1
  },
  "storageLayout": {
    "storage": [
      {
        "astId": 111,
        "contract": "contracts/funds/FsmReserve.sol:FsmReserve",
        "label": "_initialized",
        "offset": 0,
        "slot": "0",
        "type": "t_bool"
      },
      {
        "astId": 114,
        "contract": "contracts/funds/FsmReserve.sol:FsmReserve",
        "label": "_initializing",
        "offset": 1,
        "slot": "0",
        "type": "t_bool"
      },
      {
        "astId": 7852,
        "contract": "contracts/funds/FsmReserve.sol:FsmReserve",
        "label": "fsm",
        "offset": 2,
        "slot": "0",
        "type": "t_contract(IERC20)884"
      },
      {
        "astId": 7854,
        "contract": "contracts/funds/FsmReserve.sol:FsmReserve",
        "label": "rewarder",
        "offset": 0,
        "slot": "1",
        "type": "t_address"
      },
      {
        "astId": 7856,
        "contract": "contracts/funds/FsmReserve.sol:FsmReserve",
        "label": "pool",
        "offset": 0,
        "slot": "2",
        "type": "t_address"
      }
    ],
    "types": {
      "t_address": {
        "encoding": "inplace",
        "label": "address",
        "numberOfBytes": "20"
      },
      "t_bool": {
        "encoding": "inplace",
        "label": "bool",
        "numberOfBytes": "1"
      },
      "t_contract(IERC20)884": {
        "encoding": "inplace",
        "label": "contract IERC20",
        "numberOfBytes": "20"
      }
    }
  }
}