{
  "address": "0x5c8CE3986D79A836cC08874Afc92a6338234a22E",
  "abi": [
    {
      "inputs": [
        {
          "internalType": "address",
          "name": "_yToken",
          "type": "address"
        },
        {
          "internalType": "address",
          "name": "_lp",
          "type": "address"
        },
        {
          "internalType": "address",
          "name": "_treasury",
          "type": "address"
        },
        {
          "internalType": "address",
          "name": "_swapRouter",
          "type": "address"
        },
        {
          "internalType": "address[]",
          "name": "_swapPaths",
          "type": "address[]"
        }
      ],
      "stateMutability": "nonpayable",
      "type": "constructor"
    },
    {
      "anonymous": false,
      "inputs": [
        {
          "indexed": false,
          "internalType": "uint256",
          "name": "_lpBalance",
          "type": "uint256"
        },
        {
          "indexed": false,
          "internalType": "uint256",
          "name": "_wethAmt",
          "type": "uint256"
        },
        {
          "indexed": false,
          "internalType": "uint256",
          "name": "_yTokenAmt",
          "type": "uint256"
        }
      ],
      "name": "LiquidityAdded",
      "type": "event"
    },
    {
      "anonymous": false,
      "inputs": [
        {
          "indexed": true,
          "internalType": "address",
          "name": "previousOwner",
          "type": "address"
        },
        {
          "indexed": true,
          "internalType": "address",
          "name": "newOwner",
          "type": "address"
        }
      ],
      "name": "OwnershipTransferred",
      "type": "event"
    },
    {
      "anonymous": false,
      "inputs": [
        {
          "indexed": false,
          "internalType": "uint256",
          "name": "_newSlippage",
          "type": "uint256"
        }
      ],
      "name": "SlippageChanged",
      "type": "event"
    },
    {
      "inputs": [
        {
          "internalType": "uint256",
          "name": "_newSlippage",
          "type": "uint256"
        }
      ],
      "name": "changeSlippage",
      "outputs": [],
      "stateMutability": "nonpayable",
      "type": "function"
    },
    {
      "inputs": [],
      "name": "cleanDust",
      "outputs": [],
      "stateMutability": "nonpayable",
      "type": "function"
    },
    {
      "inputs": [
        {
          "internalType": "uint256",
          "name": "_wethIn",
          "type": "uint256"
        },
        {
          "internalType": "uint256",
          "name": "_yTokenOut",
          "type": "uint256"
        }
      ],
      "name": "execute",
      "outputs": [],
      "stateMutability": "nonpayable",
      "type": "function"
    },
    {
      "inputs": [],
      "name": "lp",
      "outputs": [
        {
          "internalType": "contract IERC20",
          "name": "",
          "type": "address"
        }
      ],
      "stateMutability": "view",
      "type": "function"
    },
    {
      "inputs": [],
      "name": "lpBalance",
      "outputs": [
        {
          "internalType": "uint256",
          "name": "",
          "type": "uint256"
        }
      ],
      "stateMutability": "view",
      "type": "function"
    },
    {
      "inputs": [],
      "name": "owner",
      "outputs": [
        {
          "internalType": "address",
          "name": "",
          "type": "address"
        }
      ],
      "stateMutability": "view",
      "type": "function"
    },
    {
      "inputs": [],
      "name": "renounceOwnership",
      "outputs": [],
      "stateMutability": "nonpayable",
      "type": "function"
    },
    {
      "inputs": [
        {
          "internalType": "uint256",
          "name": "",
          "type": "uint256"
        }
      ],
      "name": "swapPaths",
      "outputs": [
        {
          "internalType": "address",
          "name": "",
          "type": "address"
        }
      ],
      "stateMutability": "view",
      "type": "function"
    },
    {
      "inputs": [],
      "name": "swapRouter",
      "outputs": [
        {
          "internalType": "contract IUniswapV2Router02",
          "name": "",
          "type": "address"
        }
      ],
      "stateMutability": "view",
      "type": "function"
    },
    {
      "inputs": [],
      "name": "swapSlippage",
      "outputs": [
        {
          "internalType": "uint256",
          "name": "",
          "type": "uint256"
        }
      ],
      "stateMutability": "view",
      "type": "function"
    },
    {
      "inputs": [
        {
          "internalType": "address",
          "name": "newOwner",
          "type": "address"
        }
      ],
      "name": "transferOwnership",
      "outputs": [],
      "stateMutability": "nonpayable",
      "type": "function"
    },
    {
      "inputs": [],
      "name": "treasury",
      "outputs": [
        {
          "internalType": "address",
          "name": "",
          "type": "address"
        }
      ],
      "stateMutability": "view",
      "type": "function"
    },
    {
      "inputs": [],
      "name": "yToken",
      "outputs": [
        {
          "internalType": "contract IERC20",
          "name": "",
          "type": "address"
        }
      ],
      "stateMutability": "view",
      "type": "function"
    }
  ],
  "transactionHash": "0xce574f523b92b9b79efdc4753689dac81414373f057feff0fc92b4539548a7e1",
  "args": [
    "0x2578d23dbF37FFC95f7b73C21cE6b3d6270efEA5",
    "0x3DC4212706C45Dc9E9D23529850719fA2ceBD0E4",
    "0x474fC9A764EBcBa3bd48A9A565ece5A25A8a112e",
    "0xF491e7B69E4244ad4002BC14e878a34207E38c29",
    [
      "0x21be370D5312f44cB42ce377BC9b8a0cEF1A4C83",
      "0x2578d23dbF37FFC95f7b73C21cE6b3d6270efEA5"
    ]
  ],
  "numDeployments": 1,
  "solcInputHash": "e3b934c02ffbee22c3654f8fe1ecc068",
  "bytecode": "0x61010060405262030d406002553480156200001957600080fd5b506040516200161c3803806200161c8339810160408190526200003c9162000180565b620000473362000092565b6001600160601b0319606086811b821660805285811b821660a05284811b821660e05283901b1660c052805162000086906001906020840190620000e2565b505050505050620002b8565b600080546001600160a01b038381166001600160a01b0319831681178455604051919092169283917f8be0079c531659141344cd1fd0a4f28419497f9722a3daafe3b4186f6b6457e09190a35050565b8280548282559060005260206000209081019282156200013a579160200282015b828111156200013a57825182546001600160a01b0319166001600160a01b0390911617825560209092019160019091019062000103565b50620001489291506200014c565b5090565b5b808211156200014857600081556001016200014d565b80516001600160a01b03811681146200017b57600080fd5b919050565b600080600080600060a0868803121562000198578081fd5b620001a38662000163565b94506020620001b481880162000163565b9450620001c46040880162000163565b9350620001d46060880162000163565b60808801519093506001600160401b0380821115620001f1578384fd5b818901915089601f83011262000205578384fd5b8151818111156200021a576200021a620002a2565b8060051b604051601f19603f83011681018181108582111715620002425762000242620002a2565b604052828152858101935084860182860187018e101562000261578788fd5b8795505b838610156200028e57620002798162000163565b85526001959095019493860193860162000265565b508096505050505050509295509295909350565b634e487b7160e01b600052604160045260246000fd5b60805160601c60a05160601c60c05160601c60e05160601c6112bd6200035f6000396000818161018001528181610306015281816103f4015281816108dd0152610ad80152600081816101e6015281816107c60152818161080501528181610a0001528181610a3f0152610b0d01526000818160fd015261023301526000818161013c01528181610330015281816103b4015281816109de0152610a7a01526112bd6000f3fe608060405234801561001057600080fd5b50600436106100cf5760003560e01c806361d027b31161008c578063932435091161006657806393243509146101bb578063bec872b0146101ce578063c31c9c07146101e1578063f2fde38b1461020857600080fd5b806361d027b31461017b578063715018a6146101a25780638da5cb5b146101aa57600080fd5b80631aedeabe146100d45780632059f615146100f0578063313c06a0146100f857806349bfcca1146101375780634d9b35091461015e5780635601eaea14610168575b600080fd5b6100dd60025481565b6040519081526020015b60405180910390f35b6100dd61021b565b61011f7f000000000000000000000000000000000000000000000000000000000000000081565b6040516001600160a01b0390911681526020016100e7565b61011f7f000000000000000000000000000000000000000000000000000000000000000081565b6101666102ba565b005b61016661017636600461107c565b6104a1565b61011f7f000000000000000000000000000000000000000000000000000000000000000081565b610166610539565b6000546001600160a01b031661011f565b61011f6101c936600461104c565b61056d565b6101666101dc36600461104c565b610597565b61011f7f000000000000000000000000000000000000000000000000000000000000000081565b610166610216366004610f45565b610669565b6040516370a0823160e01b81523060048201526000907f00000000000000000000000000000000000000000000000000000000000000006001600160a01b0316906370a082319060240160206040518083038186803b15801561027d57600080fd5b505afa158015610291573d6000803e3d6000fd5b505050506040513d601f19601f820116820180604052508101906102b59190611064565b905090565b6000546001600160a01b031633146102ed5760405162461bcd60e51b81526004016102e490611119565b60405180910390fd5b6040516370a0823160e01b81523060048201526103db907f0000000000000000000000000000000000000000000000000000000000000000906001600160a01b037f000000000000000000000000000000000000000000000000000000000000000016906370a082319060240160206040518083038186803b15801561037257600080fd5b505afa158015610386573d6000803e3d6000fd5b505050506040513d601f19601f820116820180604052508101906103aa9190611064565b6001600160a01b037f0000000000000000000000000000000000000000000000000000000000000000169190610704565b6040516370a0823160e01b815230600482015261049f907f0000000000000000000000000000000000000000000000000000000000000000907321be370d5312f44cb42ce377bc9b8a0cef1a4c83906370a082319060240160206040518083038186803b15801561044b57600080fd5b505afa15801561045f573d6000803e3d6000fd5b505050506040513d601f19601f820116820180604052508101906104839190611064565b7321be370d5312f44cb42ce377bc9b8a0cef1a4c839190610704565b565b6104c17321be370d5312f44cb42ce377bc9b8a0cef1a4c8333308561076c565b60006104ce6002846111d9565b905060006104dc8285611218565b90506000620f424060028054620f42406104f69190611218565b61050090876111f9565b61050a91906111d9565b61051491906111d9565b9050600061052284836107aa565b905061053181846002546108db565b505050505050565b6000546001600160a01b031633146105635760405162461bcd60e51b81526004016102e490611119565b61049f6000610bdf565b6001818154811061057d57600080fd5b6000918252602090912001546001600160a01b0316905081565b6000546001600160a01b031633146105c15760405162461bcd60e51b81526004016102e490611119565b620f424081111561062e5760405162461bcd60e51b815260206004820152603160248201527f537761705374726174656779504f4c3a3a6368616e6765536c6970706167653a60448201527020496e76616c696420736c69707061676560781b60648201526084016102e4565b60028190556040518181527febfb7b9839a38a6c5d27e43aeb27cf7c47a40bde9262cabba968aecd6336ea109060200160405180910390a150565b6000546001600160a01b031633146106935760405162461bcd60e51b81526004016102e490611119565b6001600160a01b0381166106f85760405162461bcd60e51b815260206004820152602660248201527f4f776e61626c653a206e6577206f776e657220697320746865207a65726f206160448201526564647265737360d01b60648201526084016102e4565b61070181610bdf565b50565b6040516001600160a01b03831660248201526044810182905261076790849063a9059cbb60e01b906064015b60408051601f198184030181529190526020810180516001600160e01b03166001600160e01b031990931692909217909152610c2f565b505050565b6040516001600160a01b03808516602483015283166044820152606481018290526107a49085906323b872dd60e01b90608401610730565b50505050565b60006107eb7321be370d5312f44cb42ce377bc9b8a0cef1a4c837f000000000000000000000000000000000000000000000000000000000000000085610d01565b6040516338ed173960e01b81526000906001600160a01b037f000000000000000000000000000000000000000000000000000000000000000016906338ed17399061084390879087906001903090429060040161114e565b600060405180830381600087803b15801561085d57600080fd5b505af1158015610871573d6000803e3d6000fd5b505050506040513d6000823e601f3d908101601f191682016040526108999190810190610f6c565b6001805491925082916108ac9190611218565b815181106108ca57634e487b7160e01b600052603260045260246000fd5b602002602001015191505092915050565b7f00000000000000000000000000000000000000000000000000000000000000006001600160a01b03166109705760405162461bcd60e51b815260206004820152603660248201527f537761705374726174656779504f4c3a3a6164644c69717569646974793a496e60448201527576616c6964207472656173757279206164647265737360501b60648201526084016102e4565b6000831180156109805750600082115b15610767576000620f42406109958382611218565b61099f90866111f9565b6109a991906111d9565b90506000620f42406109bb8482611218565b6109c590866111f9565b6109cf91906111d9565b9050610a256001600160a01b037f0000000000000000000000000000000000000000000000000000000000000000167f000000000000000000000000000000000000000000000000000000000000000087610d01565b610a647321be370d5312f44cb42ce377bc9b8a0cef1a4c837f000000000000000000000000000000000000000000000000000000000000000086610d01565b60405162e8e33760e81b81526001600160a01b037f0000000000000000000000000000000000000000000000000000000000000000811660048301527321be370d5312f44cb42ce377bc9b8a0cef1a4c83602483015260448201879052606482018690526084820184905260a482018390527f0000000000000000000000000000000000000000000000000000000000000000811660c48301524260e4830152600091829182917f00000000000000000000000000000000000000000000000000000000000000009091169063e8e337009061010401606060405180830381600087803b158015610b5457600080fd5b505af1158015610b68573d6000803e3d6000fd5b505050506040513d601f19601f82011682018060405250810190610b8c919061109d565b604080518281526020810185905290810183905292955090935091507fd7f28048575eead8851d024ead087913957dfb4fd1a02b4d1573f5352a5a2be39060600160405180910390a15050505050505050565b600080546001600160a01b038381166001600160a01b0319831681178455604051919092169283917f8be0079c531659141344cd1fd0a4f28419497f9722a3daafe3b4186f6b6457e09190a35050565b6000610c84826040518060400160405280602081526020017f5361666545524332303a206c6f772d6c6576656c2063616c6c206661696c6564815250856001600160a01b0316610dc29092919063ffffffff16565b8051909150156107675780806020019051810190610ca2919061102c565b6107675760405162461bcd60e51b815260206004820152602a60248201527f5361666545524332303a204552433230206f7065726174696f6e20646964206e6044820152691bdd081cdd58d8d9595960b21b60648201526084016102e4565b604051636eb1769f60e11b81523060048201526001600160a01b038381166024830152600091839186169063dd62ed3e9060440160206040518083038186803b158015610d4d57600080fd5b505afa158015610d61573d6000803e3d6000fd5b505050506040513d601f19601f82011682018060405250810190610d859190611064565b610d8f91906111c1565b6040516001600160a01b0385166024820152604481018290529091506107a490859063095ea7b360e01b90606401610730565b6060610dd18484600085610ddb565b90505b9392505050565b606082471015610e3c5760405162461bcd60e51b815260206004820152602660248201527f416464726573733a20696e73756666696369656e742062616c616e636520666f6044820152651c8818d85b1b60d21b60648201526084016102e4565b6001600160a01b0385163b610e935760405162461bcd60e51b815260206004820152601d60248201527f416464726573733a2063616c6c20746f206e6f6e2d636f6e747261637400000060448201526064016102e4565b600080866001600160a01b03168587604051610eaf91906110ca565b60006040518083038185875af1925050503d8060008114610eec576040519150601f19603f3d011682016040523d82523d6000602084013e610ef1565b606091505b5091509150610f01828286610f0c565b979650505050505050565b60608315610f1b575081610dd4565b825115610f2b5782518084602001fd5b8160405162461bcd60e51b81526004016102e491906110e6565b600060208284031215610f56578081fd5b81356001600160a01b0381168114610dd4578182fd5b60006020808385031215610f7e578182fd5b825167ffffffffffffffff80821115610f95578384fd5b818501915085601f830112610fa8578384fd5b815181811115610fba57610fba611271565b8060051b604051601f19603f83011681018181108582111715610fdf57610fdf611271565b604052828152858101935084860182860187018a1015610ffd578788fd5b8795505b8386101561101f578051855260019590950194938601938601611001565b5098975050505050505050565b60006020828403121561103d578081fd5b81518015158114610dd4578182fd5b60006020828403121561105d578081fd5b5035919050565b600060208284031215611075578081fd5b5051919050565b6000806040838503121561108e578081fd5b50508035926020909101359150565b6000806000606084860312156110b1578081fd5b8351925060208401519150604084015190509250925092565b600082516110dc81846020870161122f565b9190910192915050565b602081526000825180602084015261110581604085016020870161122f565b601f01601f19169190910160400192915050565b6020808252818101527f4f776e61626c653a2063616c6c6572206973206e6f7420746865206f776e6572604082015260600190565b600060a082018783526020878185015260a0604085015281875480845260c0860191508885528285209350845b818110156111a05784546001600160a01b03168352600194850194928401920161117b565b50506001600160a01b03969096166060850152505050608001529392505050565b600082198211156111d4576111d461125b565b500190565b6000826111f457634e487b7160e01b81526012600452602481fd5b500490565b60008160001904831182151516156112135761121361125b565b500290565b60008282101561122a5761122a61125b565b500390565b60005b8381101561124a578181015183820152602001611232565b838111156107a45750506000910152565b634e487b7160e01b600052601160045260246000fd5b634e487b7160e01b600052604160045260246000fdfea264697066735822122002178f0bf3bd84eb2c39f3d6b8131a110a147f80c516a95275d6c88f09b2e83f64736f6c63430008040033",
  "libraries": {
    "WethUtils": "0xb3ed3C150846F7363509d2A1A2B77a2a00DC8094"
  },
  "devdoc": {
    "kind": "dev",
    "methods": {
      "execute(uint256,uint256)": {
        "params": {
          "_wethIn": "Amount of WETH input",
          "_yTokenOut": "Amount of YToken output expected"
        }
      },
      "owner()": {
        "details": "Returns the address of the current owner."
      },
      "renounceOwnership()": {
        "details": "Leaves the contract without owner. It will not be possible to call `onlyOwner` functions anymore. Can only be called by the current owner. NOTE: Renouncing ownership will leave the contract without an owner, thereby removing any functionality that is only available to the owner."
      },
      "transferOwnership(address)": {
        "details": "Transfers ownership of the contract to a new account (`newOwner`). Can only be called by the current owner."
      }
    },
    "version": 1
  },
  "userdoc": {
    "kind": "user",
    "methods": {
      "execute(uint256,uint256)": {
        "notice": "Function to take input WETH to swap to YToken then add liquidity"
      }
    },
    "version": 1
  },
  "storageLayout": {
    "storage": [
      {
        "astId": 7,
        "contract": "contracts/SwapStrategyPOL.sol:SwapStrategyPOL",
        "label": "_owner",
        "offset": 0,
        "slot": "0",
        "type": "t_address"
      },
      {
        "astId": 4102,
        "contract": "contracts/SwapStrategyPOL.sol:SwapStrategyPOL",
        "label": "swapPaths",
        "offset": 0,
        "slot": "1",
        "type": "t_array(t_address)dyn_storage"
      },
      {
        "astId": 4107,
        "contract": "contracts/SwapStrategyPOL.sol:SwapStrategyPOL",
        "label": "swapSlippage",
        "offset": 0,
        "slot": "2",
        "type": "t_uint256"
      }
    ],
    "types": {
      "t_address": {
        "encoding": "inplace",
        "label": "address",
        "numberOfBytes": "20"
      },
      "t_array(t_address)dyn_storage": {
        "base": "t_address",
        "encoding": "dynamic_array",
        "label": "address[]",
        "numberOfBytes": "32"
      },
      "t_uint256": {
        "encoding": "inplace",
        "label": "uint256",
        "numberOfBytes": "32"
      }
    }
  }
}