{
  "address": "0x922a3499c8B797e40d41800C56e38A0D4DBc8D86",
  "abi": [
    {
      "inputs": [
        {
          "internalType": "string",
          "name": "_name",
          "type": "string"
        },
        {
          "internalType": "string",
          "name": "_symbol",
          "type": "string"
        }
      ],
      "stateMutability": "nonpayable",
      "type": "constructor"
    },
    {
      "anonymous": false,
      "inputs": [
        {
          "indexed": true,
          "internalType": "address",
          "name": "owner",
          "type": "address"
        },
        {
          "indexed": true,
          "internalType": "address",
          "name": "spender",
          "type": "address"
        },
        {
          "indexed": false,
          "internalType": "uint256",
          "name": "value",
          "type": "uint256"
        }
      ],
      "name": "Approval",
      "type": "event"
    },
    {
      "anonymous": false,
      "inputs": [
        {
          "indexed": true,
          "internalType": "address",
          "name": "from",
          "type": "address"
        },
        {
          "indexed": true,
          "internalType": "address",
          "name": "to",
          "type": "address"
        },
        {
          "indexed": false,
          "internalType": "uint256",
          "name": "value",
          "type": "uint256"
        }
      ],
      "name": "Transfer",
      "type": "event"
    },
    {
      "inputs": [],
      "name": "GENESIS_SUPPLY",
      "outputs": [
        {
          "internalType": "uint256",
          "name": "",
          "type": "uint256"
        }
      ],
      "stateMutability": "view",
      "type": "function"
    },
    {
      "inputs": [
        {
          "internalType": "address",
          "name": "owner",
          "type": "address"
        },
        {
          "internalType": "address",
          "name": "spender",
          "type": "address"
        }
      ],
      "name": "allowance",
      "outputs": [
        {
          "internalType": "uint256",
          "name": "",
          "type": "uint256"
        }
      ],
      "stateMutability": "view",
      "type": "function"
    },
    {
      "inputs": [
        {
          "internalType": "address",
          "name": "spender",
          "type": "address"
        },
        {
          "internalType": "uint256",
          "name": "amount",
          "type": "uint256"
        }
      ],
      "name": "approve",
      "outputs": [
        {
          "internalType": "bool",
          "name": "",
          "type": "bool"
        }
      ],
      "stateMutability": "nonpayable",
      "type": "function"
    },
    {
      "inputs": [
        {
          "internalType": "address",
          "name": "account",
          "type": "address"
        }
      ],
      "name": "balanceOf",
      "outputs": [
        {
          "internalType": "uint256",
          "name": "",
          "type": "uint256"
        }
      ],
      "stateMutability": "view",
      "type": "function"
    },
    {
      "inputs": [
        {
          "internalType": "uint256",
          "name": "amount",
          "type": "uint256"
        }
      ],
      "name": "burn",
      "outputs": [],
      "stateMutability": "nonpayable",
      "type": "function"
    },
    {
      "inputs": [
        {
          "internalType": "address",
          "name": "account",
          "type": "address"
        },
        {
          "internalType": "uint256",
          "name": "amount",
          "type": "uint256"
        }
      ],
      "name": "burnFrom",
      "outputs": [],
      "stateMutability": "nonpayable",
      "type": "function"
    },
    {
      "inputs": [],
      "name": "decimals",
      "outputs": [
        {
          "internalType": "uint8",
          "name": "",
          "type": "uint8"
        }
      ],
      "stateMutability": "view",
      "type": "function"
    },
    {
      "inputs": [
        {
          "internalType": "address",
          "name": "spender",
          "type": "address"
        },
        {
          "internalType": "uint256",
          "name": "subtractedValue",
          "type": "uint256"
        }
      ],
      "name": "decreaseAllowance",
      "outputs": [
        {
          "internalType": "bool",
          "name": "",
          "type": "bool"
        }
      ],
      "stateMutability": "nonpayable",
      "type": "function"
    },
    {
      "inputs": [
        {
          "internalType": "address",
          "name": "spender",
          "type": "address"
        },
        {
          "internalType": "uint256",
          "name": "addedValue",
          "type": "uint256"
        }
      ],
      "name": "increaseAllowance",
      "outputs": [
        {
          "internalType": "bool",
          "name": "",
          "type": "bool"
        }
      ],
      "stateMutability": "nonpayable",
      "type": "function"
    },
    {
      "inputs": [
        {
          "internalType": "address",
          "name": "_address",
          "type": "address"
        },
        {
          "internalType": "uint256",
          "name": "_amount",
          "type": "uint256"
        }
      ],
      "name": "mint",
      "outputs": [],
      "stateMutability": "nonpayable",
      "type": "function"
    },
    {
      "inputs": [],
      "name": "minter",
      "outputs": [
        {
          "internalType": "address",
          "name": "",
          "type": "address"
        }
      ],
      "stateMutability": "view",
      "type": "function"
    },
    {
      "inputs": [],
      "name": "name",
      "outputs": [
        {
          "internalType": "string",
          "name": "",
          "type": "string"
        }
      ],
      "stateMutability": "view",
      "type": "function"
    },
    {
      "inputs": [
        {
          "internalType": "address",
          "name": "_minter",
          "type": "address"
        }
      ],
      "name": "setMinter",
      "outputs": [],
      "stateMutability": "nonpayable",
      "type": "function"
    },
    {
      "inputs": [],
      "name": "symbol",
      "outputs": [
        {
          "internalType": "string",
          "name": "",
          "type": "string"
        }
      ],
      "stateMutability": "view",
      "type": "function"
    },
    {
      "inputs": [],
      "name": "totalSupply",
      "outputs": [
        {
          "internalType": "uint256",
          "name": "",
          "type": "uint256"
        }
      ],
      "stateMutability": "view",
      "type": "function"
    },
    {
      "inputs": [
        {
          "internalType": "address",
          "name": "to",
          "type": "address"
        },
        {
          "internalType": "uint256",
          "name": "amount",
          "type": "uint256"
        }
      ],
      "name": "transfer",
      "outputs": [
        {
          "internalType": "bool",
          "name": "",
          "type": "bool"
        }
      ],
      "stateMutability": "nonpayable",
      "type": "function"
    },
    {
      "inputs": [
        {
          "internalType": "address",
          "name": "from",
          "type": "address"
        },
        {
          "internalType": "address",
          "name": "to",
          "type": "address"
        },
        {
          "internalType": "uint256",
          "name": "amount",
          "type": "uint256"
        }
      ],
      "name": "transferFrom",
      "outputs": [
        {
          "internalType": "bool",
          "name": "",
          "type": "bool"
        }
      ],
      "stateMutability": "nonpayable",
      "type": "function"
    }
  ],
  "transactionHash": "0xe71a86b771776a0511368b9535cab13f9db53d66fb99a4aff4b3bd5064f8697c",
  "args": [
    "Fantastic Protocol XFTM Token",
    "XFTM"
  ],
  "numDeployments": 1,
  "solcInputHash": "12f2a450255a56d306c61999a279f4c6",
  "bytecode": "0x60806040523480156200001157600080fd5b50604051620010d3380380620010d38339810160408190526200003491620002cf565b8181818181600390805190602001906200005092919062000176565b5080516200006690600490602084019062000176565b5050505050620000863368056bc75e2d631000006200008e60201b60201c565b5050620003ae565b6001600160a01b038216620000e95760405162461bcd60e51b815260206004820152601f60248201527f45524332303a206d696e7420746f20746865207a65726f206164647265737300604482015260640160405180910390fd5b8060026000828254620000fd919062000336565b90915550506001600160a01b038216600090815260208190526040812080548392906200012c90849062000336565b90915550506040518181526001600160a01b038316906000907fddf252ad1be2c89b69c2b068fc378daa952ba7f163c4a11628f55a4df523b3ef9060200160405180910390a35050565b82805462000184906200035b565b90600052602060002090601f016020900481019282620001a85760008555620001f3565b82601f10620001c357805160ff1916838001178555620001f3565b82800160010185558215620001f3579182015b82811115620001f3578251825591602001919060010190620001d6565b506200020192915062000205565b5090565b5b8082111562000201576000815560010162000206565b600082601f8301126200022d578081fd5b81516001600160401b03808211156200024a576200024a62000398565b604051601f8301601f19908116603f0116810190828211818310171562000275576200027562000398565b8160405283815260209250868385880101111562000291578485fd5b8491505b83821015620002b4578582018301518183018401529082019062000295565b83821115620002c557848385830101525b9695505050505050565b60008060408385031215620002e2578182fd5b82516001600160401b0380821115620002f9578384fd5b62000307868387016200021c565b935060208501519150808211156200031d578283fd5b506200032c858286016200021c565b9150509250929050565b600082198211156200035657634e487b7160e01b81526011600452602481fd5b500190565b600181811c908216806200037057607f821691505b602082108114156200039257634e487b7160e01b600052602260045260246000fd5b50919050565b634e487b7160e01b600052604160045260246000fd5b610d1580620003be6000396000f3fe608060405234801561001057600080fd5b506004361061010b5760003560e01c806342966c68116100a257806399ec67651161007157806399ec67651461022f578063a457c2d71461023f578063a9059cbb14610252578063dd62ed3e14610265578063fca3b5aa1461029e57600080fd5b806342966c68146101d857806370a08231146101eb57806379cc67901461021457806395d89b411461022757600080fd5b806323b872dd116100de57806323b872dd1461018e578063313ce567146101a157806339509351146101b057806340c10f19146101c357600080fd5b806306fdde0314610110578063075461721461012e578063095ea7b31461015957806318160ddd1461017c575b600080fd5b6101186102b1565b6040516101259190610c0c565b60405180910390f35b600554610141906001600160a01b031681565b6040516001600160a01b039091168152602001610125565b61016c610167366004610bcb565b610343565b6040519015158152602001610125565b6002545b604051908152602001610125565b61016c61019c366004610b90565b61035b565b60405160128152602001610125565b61016c6101be366004610bcb565b61037f565b6101d66101d1366004610bcb565b6103be565b005b6101d66101e6366004610bf4565b61042b565b6101806101f9366004610b3d565b6001600160a01b031660009081526020819052604090205490565b6101d6610222366004610bcb565b610438565b61011861044d565b61018068056bc75e2d6310000081565b61016c61024d366004610bcb565b61045c565b61016c610260366004610bcb565b6104ee565b610180610273366004610b5e565b6001600160a01b03918216600090815260016020908152604080832093909416825291909152205490565b6101d66102ac366004610b3d565b6104fc565b6060600380546102c090610c8e565b80601f01602080910402602001604051908101604052809291908181526020018280546102ec90610c8e565b80156103395780601f1061030e57610100808354040283529160200191610339565b820191906000526020600020905b81548152906001019060200180831161031c57829003601f168201915b5050505050905090565b600033610351818585610577565b5060019392505050565b60003361036985828561069c565b61037485858561072e565b506001949350505050565b3360008181526001602090815260408083206001600160a01b038716845290915281205490919061035190829086906103b9908790610c5f565b610577565b6005546001600160a01b0316331461041d5760405162461bcd60e51b815260206004820152601f60248201527f58546f6b656e3a3a4f6e6c79206d696e7465722063616e20726571756573740060448201526064015b60405180910390fd5b61042782826108fc565b5050565b61043533826109db565b50565b61044382338361069c565b61042782826109db565b6060600480546102c090610c8e565b3360008181526001602090815260408083206001600160a01b0387168452909152812054909190838110156104e15760405162461bcd60e51b815260206004820152602560248201527f45524332303a2064656372656173656420616c6c6f77616e63652062656c6f77604482015264207a65726f60d81b6064820152608401610414565b6103748286868403610577565b60003361035181858561072e565b6005546001600160a01b0316156105555760405162461bcd60e51b815260206004820152601e60248201527f58546f6b656e3a3a7365744d696e7465723a204e4f545f414c4c4f57454400006044820152606401610414565b600580546001600160a01b0319166001600160a01b0392909216919091179055565b6001600160a01b0383166105d95760405162461bcd60e51b8152602060048201526024808201527f45524332303a20617070726f76652066726f6d20746865207a65726f206164646044820152637265737360e01b6064820152608401610414565b6001600160a01b03821661063a5760405162461bcd60e51b815260206004820152602260248201527f45524332303a20617070726f766520746f20746865207a65726f206164647265604482015261737360f01b6064820152608401610414565b6001600160a01b0383811660008181526001602090815260408083209487168084529482529182902085905590518481527f8c5be1e5ebec7d5bd14f71427d1e84f3dd0314c0f7b2291e5b200ac8c7c3b92591015b60405180910390a3505050565b6001600160a01b038381166000908152600160209081526040808320938616835292905220546000198114610728578181101561071b5760405162461bcd60e51b815260206004820152601d60248201527f45524332303a20696e73756666696369656e7420616c6c6f77616e63650000006044820152606401610414565b6107288484848403610577565b50505050565b6001600160a01b0383166107925760405162461bcd60e51b815260206004820152602560248201527f45524332303a207472616e736665722066726f6d20746865207a65726f206164604482015264647265737360d81b6064820152608401610414565b6001600160a01b0382166107f45760405162461bcd60e51b815260206004820152602360248201527f45524332303a207472616e7366657220746f20746865207a65726f206164647260448201526265737360e81b6064820152608401610414565b6001600160a01b0383166000908152602081905260409020548181101561086c5760405162461bcd60e51b815260206004820152602660248201527f45524332303a207472616e7366657220616d6f756e7420657863656564732062604482015265616c616e636560d01b6064820152608401610414565b6001600160a01b038085166000908152602081905260408082208585039055918516815290812080548492906108a3908490610c5f565b92505081905550826001600160a01b0316846001600160a01b03167fddf252ad1be2c89b69c2b068fc378daa952ba7f163c4a11628f55a4df523b3ef846040516108ef91815260200190565b60405180910390a3610728565b6001600160a01b0382166109525760405162461bcd60e51b815260206004820152601f60248201527f45524332303a206d696e7420746f20746865207a65726f2061646472657373006044820152606401610414565b80600260008282546109649190610c5f565b90915550506001600160a01b03821660009081526020819052604081208054839290610991908490610c5f565b90915550506040518181526001600160a01b038316906000907fddf252ad1be2c89b69c2b068fc378daa952ba7f163c4a11628f55a4df523b3ef9060200160405180910390a35050565b6001600160a01b038216610a3b5760405162461bcd60e51b815260206004820152602160248201527f45524332303a206275726e2066726f6d20746865207a65726f206164647265736044820152607360f81b6064820152608401610414565b6001600160a01b03821660009081526020819052604090205481811015610aaf5760405162461bcd60e51b815260206004820152602260248201527f45524332303a206275726e20616d6f756e7420657863656564732062616c616e604482015261636560f01b6064820152608401610414565b6001600160a01b0383166000908152602081905260408120838303905560028054849290610ade908490610c77565b90915550506040518281526000906001600160a01b038516907fddf252ad1be2c89b69c2b068fc378daa952ba7f163c4a11628f55a4df523b3ef9060200161068f565b80356001600160a01b0381168114610b3857600080fd5b919050565b600060208284031215610b4e578081fd5b610b5782610b21565b9392505050565b60008060408385031215610b70578081fd5b610b7983610b21565b9150610b8760208401610b21565b90509250929050565b600080600060608486031215610ba4578081fd5b610bad84610b21565b9250610bbb60208501610b21565b9150604084013590509250925092565b60008060408385031215610bdd578182fd5b610be683610b21565b946020939093013593505050565b600060208284031215610c05578081fd5b5035919050565b6000602080835283518082850152825b81811015610c3857858101830151858201604001528201610c1c565b81811115610c495783604083870101525b50601f01601f1916929092016040019392505050565b60008219821115610c7257610c72610cc9565b500190565b600082821015610c8957610c89610cc9565b500390565b600181811c90821680610ca257607f821691505b60208210811415610cc357634e487b7160e01b600052602260045260246000fd5b50919050565b634e487b7160e01b600052601160045260246000fdfea2646970667358221220c635388ac250cab69dd44c755060e2d57799d7a4d74093167d15df142968767e64736f6c63430008040033",
  "devdoc": {
    "kind": "dev",
    "methods": {
      "allowance(address,address)": {
        "details": "See {IERC20-allowance}."
      },
      "approve(address,uint256)": {
        "details": "See {IERC20-approve}. NOTE: If `amount` is the maximum `uint256`, the allowance is not updated on `transferFrom`. This is semantically equivalent to an infinite approval. Requirements: - `spender` cannot be the zero address."
      },
      "balanceOf(address)": {
        "details": "See {IERC20-balanceOf}."
      },
      "burn(uint256)": {
        "details": "Destroys `amount` tokens from the caller. See {ERC20-_burn}."
      },
      "burnFrom(address,uint256)": {
        "details": "Destroys `amount` tokens from `account`, deducting from the caller's allowance. See {ERC20-_burn} and {ERC20-allowance}. Requirements: - the caller must have allowance for ``accounts``'s tokens of at least `amount`."
      },
      "decimals()": {
        "details": "Returns the number of decimals used to get its user representation. For example, if `decimals` equals `2`, a balance of `505` tokens should be displayed to a user as `5.05` (`505 / 10 ** 2`). Tokens usually opt for a value of 18, imitating the relationship between Ether and Wei. This is the value {ERC20} uses, unless this function is overridden; NOTE: This information is only used for _display_ purposes: it in no way affects any of the arithmetic of the contract, including {IERC20-balanceOf} and {IERC20-transfer}."
      },
      "decreaseAllowance(address,uint256)": {
        "details": "Atomically decreases the allowance granted to `spender` by the caller. This is an alternative to {approve} that can be used as a mitigation for problems described in {IERC20-approve}. Emits an {Approval} event indicating the updated allowance. Requirements: - `spender` cannot be the zero address. - `spender` must have allowance for the caller of at least `subtractedValue`."
      },
      "increaseAllowance(address,uint256)": {
        "details": "Atomically increases the allowance granted to `spender` by the caller. This is an alternative to {approve} that can be used as a mitigation for problems described in {IERC20-approve}. Emits an {Approval} event indicating the updated allowance. Requirements: - `spender` cannot be the zero address."
      },
      "mint(address,uint256)": {
        "params": {
          "_address": "Address of receiver",
          "_amount": "Amount of new XToken"
        }
      },
      "name()": {
        "details": "Returns the name of the token."
      },
      "setMinter(address)": {
        "params": {
          "_minter": "Address of minting Pool"
        }
      },
      "symbol()": {
        "details": "Returns the symbol of the token, usually a shorter version of the name."
      },
      "totalSupply()": {
        "details": "See {IERC20-totalSupply}."
      },
      "transfer(address,uint256)": {
        "details": "See {IERC20-transfer}. Requirements: - `to` cannot be the zero address. - the caller must have a balance of at least `amount`."
      },
      "transferFrom(address,address,uint256)": {
        "details": "See {IERC20-transferFrom}. Emits an {Approval} event indicating the updated allowance. This is not required by the EIP. See the note at the beginning of {ERC20}. NOTE: Does not update the allowance if the current allowance is the maximum `uint256`. Requirements: - `from` and `to` cannot be the zero address. - `from` must have a balance of at least `amount`. - the caller must have allowance for ``from``'s tokens of at least `amount`."
      }
    },
    "version": 1
  },
  "userdoc": {
    "kind": "user",
    "methods": {
      "mint(address,uint256)": {
        "notice": "Mint new XToken"
      },
      "setMinter(address)": {
        "notice": "Set minter for XToken (only once)"
      }
    },
    "version": 1
  },
  "storageLayout": {
    "storage": [
      {
        "astId": 234,
        "contract": "contracts/tokens/fantom/XFTM.sol:XFTM",
        "label": "_balances",
        "offset": 0,
        "slot": "0",
        "type": "t_mapping(t_address,t_uint256)"
      },
      {
        "astId": 240,
        "contract": "contracts/tokens/fantom/XFTM.sol:XFTM",
        "label": "_allowances",
        "offset": 0,
        "slot": "1",
        "type": "t_mapping(t_address,t_mapping(t_address,t_uint256))"
      },
      {
        "astId": 242,
        "contract": "contracts/tokens/fantom/XFTM.sol:XFTM",
        "label": "_totalSupply",
        "offset": 0,
        "slot": "2",
        "type": "t_uint256"
      },
      {
        "astId": 244,
        "contract": "contracts/tokens/fantom/XFTM.sol:XFTM",
        "label": "_name",
        "offset": 0,
        "slot": "3",
        "type": "t_string_storage"
      },
      {
        "astId": 246,
        "contract": "contracts/tokens/fantom/XFTM.sol:XFTM",
        "label": "_symbol",
        "offset": 0,
        "slot": "4",
        "type": "t_string_storage"
      },
      {
        "astId": 9540,
        "contract": "contracts/tokens/fantom/XFTM.sol:XFTM",
        "label": "minter",
        "offset": 0,
        "slot": "5",
        "type": "t_address"
      }
    ],
    "types": {
      "t_address": {
        "encoding": "inplace",
        "label": "address",
        "numberOfBytes": "20"
      },
      "t_mapping(t_address,t_mapping(t_address,t_uint256))": {
        "encoding": "mapping",
        "key": "t_address",
        "label": "mapping(address => mapping(address => uint256))",
        "numberOfBytes": "32",
        "value": "t_mapping(t_address,t_uint256)"
      },
      "t_mapping(t_address,t_uint256)": {
        "encoding": "mapping",
        "key": "t_address",
        "label": "mapping(address => uint256)",
        "numberOfBytes": "32",
        "value": "t_uint256"
      },
      "t_string_storage": {
        "encoding": "bytes",
        "label": "string",
        "numberOfBytes": "32"
      },
      "t_uint256": {
        "encoding": "inplace",
        "label": "uint256",
        "numberOfBytes": "32"
      }
    }
  }
}